{
  "_format": "hh-sol-artifact-1",
  "contractName": "KeccakDoomsday",
  "sourceName": "contracts/doomsday.sol",
  "abi": [
    {
      "inputs": [
        {
          "internalType": "bytes32",
          "name": "_rootHash",
          "type": "bytes32"
        },
        {
          "internalType": "uint8",
          "name": "_startBits",
          "type": "uint8"
        },
        {
          "internalType": "uint8",
          "name": "len",
          "type": "uint8"
        }
      ],
      "stateMutability": "nonpayable",
      "type": "constructor"
    },
    {
      "inputs": [
        {
          "internalType": "address",
          "name": "spender",
          "type": "address"
        },
        {
          "internalType": "uint256",
          "name": "allowance",
          "type": "uint256"
        },
        {
          "internalType": "uint256",
          "name": "needed",
          "type": "uint256"
        }
      ],
      "name": "ERC20InsufficientAllowance",
      "type": "error"
    },
    {
      "inputs": [
        {
          "internalType": "address",
          "name": "sender",
          "type": "address"
        },
        {
          "internalType": "uint256",
          "name": "balance",
          "type": "uint256"
        },
        {
          "internalType": "uint256",
          "name": "needed",
          "type": "uint256"
        }
      ],
      "name": "ERC20InsufficientBalance",
      "type": "error"
    },
    {
      "inputs": [
        {
          "internalType": "address",
          "name": "approver",
          "type": "address"
        }
      ],
      "name": "ERC20InvalidApprover",
      "type": "error"
    },
    {
      "inputs": [
        {
          "internalType": "address",
          "name": "receiver",
          "type": "address"
        }
      ],
      "name": "ERC20InvalidReceiver",
      "type": "error"
    },
    {
      "inputs": [
        {
          "internalType": "address",
          "name": "sender",
          "type": "address"
        }
      ],
      "name": "ERC20InvalidSender",
      "type": "error"
    },
    {
      "inputs": [
        {
          "internalType": "address",
          "name": "spender",
          "type": "address"
        }
      ],
      "name": "ERC20InvalidSpender",
      "type": "error"
    },
    {
      "anonymous": false,
      "inputs": [
        {
          "indexed": true,
          "internalType": "address",
          "name": "owner",
          "type": "address"
        },
        {
          "indexed": true,
          "internalType": "address",
          "name": "spender",
          "type": "address"
        },
        {
          "indexed": false,
          "internalType": "uint256",
          "name": "value",
          "type": "uint256"
        }
      ],
      "name": "Approval",
      "type": "event"
    },
    {
      "anonymous": false,
      "inputs": [
        {
          "indexed": false,
          "internalType": "uint8",
          "name": "bits",
          "type": "uint8"
        },
        {
          "indexed": false,
          "internalType": "address",
          "name": "claimedBy",
          "type": "address"
        },
        {
          "indexed": false,
          "internalType": "uint256",
          "name": "weiClaimed",
          "type": "uint256"
        }
      ],
      "name": "HashClaimed",
      "type": "event"
    },
    {
      "anonymous": false,
      "inputs": [
        {
          "indexed": true,
          "internalType": "address",
          "name": "from",
          "type": "address"
        },
        {
          "indexed": true,
          "internalType": "address",
          "name": "to",
          "type": "address"
        },
        {
          "indexed": false,
          "internalType": "uint256",
          "name": "value",
          "type": "uint256"
        }
      ],
      "name": "Transfer",
      "type": "event"
    },
    {
      "inputs": [],
      "name": "CLAIM_TIMEOUT",
      "outputs": [
        {
          "internalType": "uint256",
          "name": "",
          "type": "uint256"
        }
      ],
      "stateMutability": "view",
      "type": "function"
    },
    {
      "inputs": [],
      "name": "HALT_TIMEOUT",
      "outputs": [
        {
          "internalType": "uint256",
          "name": "",
          "type": "uint256"
        }
      ],
      "stateMutability": "view",
      "type": "function"
    },
    {
      "inputs": [],
      "name": "WEI_PER_TOKEN",
      "outputs": [
        {
          "internalType": "uint256",
          "name": "",
          "type": "uint256"
        }
      ],
      "stateMutability": "view",
      "type": "function"
    },
    {
      "inputs": [
        {
          "internalType": "address",
          "name": "owner",
          "type": "address"
        },
        {
          "internalType": "address",
          "name": "spender",
          "type": "address"
        }
      ],
      "name": "allowance",
      "outputs": [
        {
          "internalType": "uint256",
          "name": "",
          "type": "uint256"
        }
      ],
      "stateMutability": "view",
      "type": "function"
    },
    {
      "inputs": [
        {
          "internalType": "address",
          "name": "spender",
          "type": "address"
        },
        {
          "internalType": "uint256",
          "name": "value",
          "type": "uint256"
        }
      ],
      "name": "approve",
      "outputs": [
        {
          "internalType": "bool",
          "name": "",
          "type": "bool"
        }
      ],
      "stateMutability": "nonpayable",
      "type": "function"
    },
    {
      "inputs": [],
      "name": "balance",
      "outputs": [
        {
          "internalType": "uint256",
          "name": "",
          "type": "uint256"
        }
      ],
      "stateMutability": "view",
      "type": "function"
    },
    {
      "inputs": [
        {
          "internalType": "address",
          "name": "account",
          "type": "address"
        }
      ],
      "name": "balanceOf",
      "outputs": [
        {
          "internalType": "uint256",
          "name": "",
          "type": "uint256"
        }
      ],
      "stateMutability": "view",
      "type": "function"
    },
    {
      "inputs": [
        {
          "internalType": "bytes32",
          "name": "commitValue",
          "type": "bytes32"
        },
        {
          "internalType": "address payable",
          "name": "claimant",
          "type": "address"
        }
      ],
      "name": "beginClaim",
      "outputs": [],
      "stateMutability": "nonpayable",
      "type": "function"
    },
    {
      "inputs": [],
      "name": "bitCount",
      "outputs": [
        {
          "internalType": "uint8",
          "name": "",
          "type": "uint8"
        }
      ],
      "stateMutability": "view",
      "type": "function"
    },
    {
      "inputs": [],
      "name": "decimals",
      "outputs": [
        {
          "internalType": "uint8",
          "name": "",
          "type": "uint8"
        }
      ],
      "stateMutability": "pure",
      "type": "function"
    },
    {
      "inputs": [],
      "name": "deposit",
      "outputs": [],
      "stateMutability": "payable",
      "type": "function"
    },
    {
      "inputs": [],
      "name": "endTime",
      "outputs": [
        {
          "internalType": "uint256",
          "name": "",
          "type": "uint256"
        }
      ],
      "stateMutability": "view",
      "type": "function"
    },
    {
      "inputs": [],
      "name": "expectedReward",
      "outputs": [
        {
          "internalType": "uint256",
          "name": "",
          "type": "uint256"
        }
      ],
      "stateMutability": "view",
      "type": "function"
    },
    {
      "inputs": [],
      "name": "finalWeiPerToken",
      "outputs": [
        {
          "internalType": "uint256",
          "name": "",
          "type": "uint256"
        }
      ],
      "stateMutability": "view",
      "type": "function"
    },
    {
      "inputs": [
        {
          "internalType": "bytes32",
          "name": "preImage",
          "type": "bytes32"
        },
        {
          "internalType": "uint8",
          "name": "bits",
          "type": "uint8"
        }
      ],
      "name": "finishClaim",
      "outputs": [],
      "stateMutability": "nonpayable",
      "type": "function"
    },
    {
      "inputs": [],
      "name": "haltIfNeeded",
      "outputs": [],
      "stateMutability": "nonpayable",
      "type": "function"
    },
    {
      "inputs": [],
      "name": "halted",
      "outputs": [
        {
          "internalType": "bool",
          "name": "",
          "type": "bool"
        }
      ],
      "stateMutability": "view",
      "type": "function"
    },
    {
      "inputs": [],
      "name": "name",
      "outputs": [
        {
          "internalType": "string",
          "name": "",
          "type": "string"
        }
      ],
      "stateMutability": "view",
      "type": "function"
    },
    {
      "inputs": [],
      "name": "nextTarget",
      "outputs": [
        {
          "components": [
            {
              "internalType": "bytes32",
              "name": "hash",
              "type": "bytes32"
            },
            {
              "internalType": "uint8",
              "name": "bits",
              "type": "uint8"
            },
            {
              "internalType": "bool",
              "name": "claimed",
              "type": "bool"
            },
            {
              "internalType": "address payable",
              "name": "claimedBy",
              "type": "address"
            }
          ],
          "internalType": "struct KeccakDoomsday.HashTarget",
          "name": "",
          "type": "tuple"
        }
      ],
      "stateMutability": "view",
      "type": "function"
    },
    {
      "inputs": [],
      "name": "rootHash",
      "outputs": [
        {
          "internalType": "bytes32",
          "name": "",
          "type": "bytes32"
        }
      ],
      "stateMutability": "view",
      "type": "function"
    },
    {
      "inputs": [],
      "name": "startBits",
      "outputs": [
        {
          "internalType": "uint8",
          "name": "",
          "type": "uint8"
        }
      ],
      "stateMutability": "view",
      "type": "function"
    },
    {
      "inputs": [],
      "name": "startTime",
      "outputs": [
        {
          "internalType": "uint256",
          "name": "",
          "type": "uint256"
        }
      ],
      "stateMutability": "view",
      "type": "function"
    },
    {
      "inputs": [],
      "name": "symbol",
      "outputs": [
        {
          "internalType": "string",
          "name": "",
          "type": "string"
        }
      ],
      "stateMutability": "view",
      "type": "function"
    },
    {
      "inputs": [
        {
          "internalType": "uint8",
          "name": "",
          "type": "uint8"
        }
      ],
      "name": "targets",
      "outputs": [
        {
          "internalType": "bytes32",
          "name": "hash",
          "type": "bytes32"
        },
        {
          "internalType": "uint8",
          "name": "bits",
          "type": "uint8"
        },
        {
          "internalType": "bool",
          "name": "claimed",
          "type": "bool"
        },
        {
          "internalType": "address payable",
          "name": "claimedBy",
          "type": "address"
        }
      ],
      "stateMutability": "view",
      "type": "function"
    },
    {
      "inputs": [],
      "name": "totalSupply",
      "outputs": [
        {
          "internalType": "uint256",
          "name": "",
          "type": "uint256"
        }
      ],
      "stateMutability": "view",
      "type": "function"
    },
    {
      "inputs": [
        {
          "internalType": "address",
          "name": "to",
          "type": "address"
        },
        {
          "internalType": "uint256",
          "name": "value",
          "type": "uint256"
        }
      ],
      "name": "transfer",
      "outputs": [
        {
          "internalType": "bool",
          "name": "",
          "type": "bool"
        }
      ],
      "stateMutability": "nonpayable",
      "type": "function"
    },
    {
      "inputs": [
        {
          "internalType": "address",
          "name": "from",
          "type": "address"
        },
        {
          "internalType": "address",
          "name": "to",
          "type": "address"
        },
        {
          "internalType": "uint256",
          "name": "value",
          "type": "uint256"
        }
      ],
      "name": "transferFrom",
      "outputs": [
        {
          "internalType": "bool",
          "name": "",
          "type": "bool"
        }
      ],
      "stateMutability": "nonpayable",
      "type": "function"
    },
    {
      "inputs": [
        {
          "internalType": "uint256",
          "name": "value",
          "type": "uint256"
        },
        {
          "internalType": "address payable",
          "name": "destination",
          "type": "address"
        }
      ],
      "name": "withdraw",
      "outputs": [],
      "stateMutability": "nonpayable",
      "type": "function"
    },
    {
      "inputs": [
        {
          "internalType": "uint256",
          "name": "value",
          "type": "uint256"
        },
        {
          "internalType": "address",
          "name": "owner",
          "type": "address"
        },
        {
          "internalType": "address payable",
          "name": "destination",
          "type": "address"
        }
      ],
      "name": "withdrawFrom",
      "outputs": [],
      "stateMutability": "nonpayable",
      "type": "function"
    }
  ],
  "bytecode": "0x6101206040526312cc030060c0908152506201518060e090815250633b9aca00610100908152503480156200003357600080fd5b50604051620030f4380380620030f48339818101604052810190620000599190620002f5565b6040518060400160405280600e81526020017f4b656363616b446f6f6d736461790000000000000000000000000000000000008152506040518060400160405280600381526020017f4b444400000000000000000000000000000000000000000000000000000000008152508160039081620000d69190620005cb565b508060049081620000e89190620005cb565b5050504260a08181525050826080818152505080600960016101000a81548160ff021916908360ff16021790555081600960026101000a81548160ff021916908360ff16021790555060008290505b8183620001459190620006e1565b60ff168160ff1610156200026d5760405180608001604052808260ff1660805160001c6200017491906200071d565b60001b81526020018260ff168152602001600015158152602001600073ffffffffffffffffffffffffffffffffffffffff16815250600560008360ff1660ff1681526020019081526020016000206000820151816000015560208201518160010160006101000a81548160ff021916908360ff16021790555060408201518160010160016101000a81548160ff02191690831515021790555060608201518160010160026101000a81548173ffffffffffffffffffffffffffffffffffffffff021916908373ffffffffffffffffffffffffffffffffffffffff1602179055509050508080620002649062000758565b91505062000137565b5050505062000786565b600080fd5b6000819050919050565b62000291816200027c565b81146200029d57600080fd5b50565b600081519050620002b18162000286565b92915050565b600060ff82169050919050565b620002cf81620002b7565b8114620002db57600080fd5b50565b600081519050620002ef81620002c4565b92915050565b60008060006060848603121562000311576200031062000277565b5b60006200032186828701620002a0565b93505060206200033486828701620002de565b92505060406200034786828701620002de565b9150509250925092565b600081519050919050565b7f4e487b7100000000000000000000000000000000000000000000000000000000600052604160045260246000fd5b7f4e487b7100000000000000000000000000000000000000000000000000000000600052602260045260246000fd5b60006002820490506001821680620003d357607f821691505b602082108103620003e957620003e86200038b565b5b50919050565b60008190508160005260206000209050919050565b60006020601f8301049050919050565b600082821b905092915050565b600060088302620004537fffffffffffffffffffffffffffffffffffffffffffffffffffffffffffffffff8262000414565b6200045f868362000414565b95508019841693508086168417925050509392505050565b6000819050919050565b6000819050919050565b6000620004ac620004a6620004a08462000477565b62000481565b62000477565b9050919050565b6000819050919050565b620004c8836200048b565b620004e0620004d782620004b3565b84845462000421565b825550505050565b600090565b620004f7620004e8565b62000504818484620004bd565b505050565b5b818110156200052c5762000520600082620004ed565b6001810190506200050a565b5050565b601f8211156200057b576200054581620003ef565b620005508462000404565b8101602085101562000560578190505b620005786200056f8562000404565b83018262000509565b50505b505050565b600082821c905092915050565b6000620005a06000198460080262000580565b1980831691505092915050565b6000620005bb83836200058d565b9150826002028217905092915050565b620005d68262000351565b67ffffffffffffffff811115620005f257620005f16200035c565b5b620005fe8254620003ba565b6200060b82828562000530565b600060209050601f8311600181146200064357600084156200062e578287015190505b6200063a8582620005ad565b865550620006aa565b601f1984166200065386620003ef565b60005b828110156200067d5784890151825560018201915060208501945060208101905062000656565b868310156200069d578489015162000699601f8916826200058d565b8355505b6001600288020188555050505b505050505050565b7f4e487b7100000000000000000000000000000000000000000000000000000000600052601160045260246000fd5b6000620006ee82620002b7565b9150620006fb83620002b7565b9250828201905060ff811115620007175762000716620006b2565b5b92915050565b60006200072a8262000477565b9150620007378362000477565b9250828201905080821115620007525762000751620006b2565b5b92915050565b60006200076582620002b7565b915060ff82036200077b576200077a620006b2565b5b600182019050919050565b60805160a05160c05160e05161010051612906620007ee600039600081816108770152818161132d01526113ac015260008181610bb3015261152d0152600081816108d10152610c8c0152600081816108f20152610cf80152600061085301526129066000f3fe6080604052600436106101c15760003560e01c806378e97925116100f7578063b69ef8a811610095578063dd62ed3e11610064578063dd62ed3e1461061b578063e92235e514610658578063f5f5dd4114610681578063fcbaa98f146106ac576101c1565b8063b69ef8a8146105a4578063b9b8af0b146105cf578063cd73097a146105fa578063d0e30db014610611576101c1565b8063a9059cbb116100d1578063a9059cbb146104d1578063ac423ce11461050e578063ad919b3b1461054e578063b015120e14610579576101c1565b806378e979251461045257806395d89b411461047d578063a7ae01f1146104a8576101c1565b8063313ce567116101645780633ab562f21161013e5780633ab562f21461039657806343aa7fc2146103c157806358499717146103ea57806370a0823114610415576101c1565b8063313ce567146103155780633197cbb61461034057806337ff0e751461036b576101c1565b806318160ddd116101a057806318160ddd146102575780631d80009a146102825780632293dbdb146102ad57806323b872dd146102d8576101c1565b8062f714ce146101c657806306fdde03146101ef578063095ea7b31461021a575b600080fd5b3480156101d257600080fd5b506101ed60048036038101906101e89190611c61565b6106d7565b005b3480156101fb57600080fd5b50610204610792565b6040516102119190611d31565b60405180910390f35b34801561022657600080fd5b50610241600480360381019061023c9190611d91565b610824565b60405161024e9190611dec565b60405180910390f35b34801561026357600080fd5b5061026c610847565b6040516102799190611e16565b60405180910390f35b34801561028e57600080fd5b50610297610851565b6040516102a49190611e4a565b60405180910390f35b3480156102b957600080fd5b506102c2610875565b6040516102cf9190611e16565b60405180910390f35b3480156102e457600080fd5b506102ff60048036038101906102fa9190611e65565b610899565b60405161030c9190611dec565b60405180910390f35b34801561032157600080fd5b5061032a6108c8565b6040516103379190611ed4565b60405180910390f35b34801561034c57600080fd5b506103556108cd565b6040516103629190611e16565b60405180910390f35b34801561037757600080fd5b50610380610920565b60405161038d9190611ed4565b60405180910390f35b3480156103a257600080fd5b506103ab610933565b6040516103b89190611f80565b60405180910390f35b3480156103cd57600080fd5b506103e860048036038101906103e39190611fc7565b610ad5565b005b3480156103f657600080fd5b506103ff610c8a565b60405161040c9190611e16565b60405180910390f35b34801561042157600080fd5b5061043c60048036038101906104379190612007565b610cae565b6040516104499190611e16565b60405180910390f35b34801561045e57600080fd5b50610467610cf6565b6040516104749190611e16565b60405180910390f35b34801561048957600080fd5b50610492610d1a565b60405161049f9190611d31565b60405180910390f35b3480156104b457600080fd5b506104cf60048036038101906104ca9190612060565b610dac565b005b3480156104dd57600080fd5b506104f860048036038101906104f39190611d91565b61118d565b6040516105059190611dec565b60405180910390f35b34801561051a57600080fd5b50610535600480360381019061053091906120a0565b6111b0565b60405161054594939291906120dc565b60405180910390f35b34801561055a57600080fd5b5061056361121a565b6040516105709190611e16565b60405180910390f35b34801561058557600080fd5b5061058e611220565b60405161059b9190611e16565b60405180910390f35b3480156105b057600080fd5b506105b9611247565b6040516105c69190611e16565b60405180910390f35b3480156105db57600080fd5b506105e461124d565b6040516105f19190611dec565b60405180910390f35b34801561060657600080fd5b5061060f611260565b005b6106196112d3565b005b34801561062757600080fd5b50610642600480360381019061063d9190612121565b6113dd565b60405161064f9190611e16565b60405180910390f35b34801561066457600080fd5b5061067f600480360381019061067a9190612161565b611464565b005b34801561068d57600080fd5b5061069661152b565b6040516106a39190611e16565b60405180910390f35b3480156106b857600080fd5b506106c161154f565b6040516106ce9190611ed4565b60405180910390f35b6106df611260565b600960009054906101000a900460ff1661072e576040517f08c379a000000000000000000000000000000000000000000000000000000000815260040161072590612200565b60405180910390fd5b61073a33600084611562565b8073ffffffffffffffffffffffffffffffffffffffff166108fc60085484610762919061224f565b9081150290604051600060405180830381858888f1935050505015801561078d573d6000803e3d6000fd5b505050565b6060600380546107a1906122c0565b80601f01602080910402602001604051908101604052809291908181526020018280546107cd906122c0565b801561081a5780601f106107ef5761010080835404028352916020019161081a565b820191906000526020600020905b8154815290600101906020018083116107fd57829003601f168201915b5050505050905090565b60008061082f611787565b905061083c81858561178f565b600191505092915050565b6000600254905090565b7f000000000000000000000000000000000000000000000000000000000000000081565b7f000000000000000000000000000000000000000000000000000000000000000081565b6000806108a4611787565b90506108b18582856117a1565b6108bc858585611835565b60019150509392505050565b600090565b60007f00000000000000000000000000000000000000000000000000000000000000007f000000000000000000000000000000000000000000000000000000000000000061091b91906122f1565b905090565b600960029054906101000a900460ff1681565b61093b611b82565b6000600960029054906101000a900460ff1690505b600960019054906101000a900460ff16600960029054906101000a900460ff1661097a9190612325565b60ff168160ff161015610a8c57600560008260ff1660ff16815260200190815260200160002060010160019054906101000a900460ff16610a7957600560008260ff1660ff168152602001908152602001600020604051806080016040529081600082015481526020016001820160009054906101000a900460ff1660ff1660ff1681526020016001820160019054906101000a900460ff161515151581526020016001820160029054906101000a900473ffffffffffffffffffffffffffffffffffffffff1673ffffffffffffffffffffffffffffffffffffffff1673ffffffffffffffffffffffffffffffffffffffff1681525050915050610ad2565b8080610a849061235a565b915050610950565b5060405180608001604052806000801b8152602001600060ff168152602001600015158152602001600073ffffffffffffffffffffffffffffffffffffffff1681525090505b90565b610add611260565b600960009054906101000a900460ff1615610b2d576040517f08c379a0000000000000000000000000000000000000000000000000000000008152600401610b24906123cf565b60405180910390fd5b600060066000848152602001908152602001600020600001541480610b675750600660008381526020019081526020016000206000015442115b610ba6576040517f08c379a0000000000000000000000000000000000000000000000000000000008152600401610b9d9061243b565b60405180910390fd5b60405180608001604052807f000000000000000000000000000000000000000000000000000000000000000042610bdd91906122f1565b81526020018381526020016000801b81526020018273ffffffffffffffffffffffffffffffffffffffff168152506006600084815260200190815260200160002060008201518160000155602082015181600101556040820151816002015560608201518160030160006101000a81548173ffffffffffffffffffffffffffffffffffffffff021916908373ffffffffffffffffffffffffffffffffffffffff1602179055509050505050565b7f000000000000000000000000000000000000000000000000000000000000000081565b60008060008373ffffffffffffffffffffffffffffffffffffffff1673ffffffffffffffffffffffffffffffffffffffff168152602001908152602001600020549050919050565b7f000000000000000000000000000000000000000000000000000000000000000081565b606060048054610d29906122c0565b80601f0160208091040260200160405190810160405280929190818152602001828054610d55906122c0565b8015610da25780601f10610d7757610100808354040283529160200191610da2565b820191906000526020600020905b815481529060010190602001808311610d8557829003601f168201915b5050505050905090565b610db4611260565b600960009054906101000a900460ff1615610e04576040517f08c379a0000000000000000000000000000000000000000000000000000000008152600401610dfb906123cf565b60405180910390fd5b600060018360001c610e1691906122f1565b60001b604051602001610e29919061247c565b60405160208183030381529060405280519060200120905042600660008381526020019081526020016000206000015411610e99576040517f08c379a0000000000000000000000000000000000000000000000000000000008152600401610e9090612509565b60405180910390fd5b600083604051602001610eac919061247c565b6040516020818303038152906040528051906020012090506000600560008560ff1660ff16815260200190815260200160002090506000801b816000015403610f2a576040517f08c379a0000000000000000000000000000000000000000000000000000000008152600401610f2190612575565b60405180910390fd5b8360ff168160010160009054906101000a900460ff1660ff1614610f83576040517f08c379a0000000000000000000000000000000000000000000000000000000008152600401610f7a906125e1565b60405180910390fd5b600015158160010160019054906101000a900460ff16151514610fdb576040517f08c379a0000000000000000000000000000000000000000000000000000000008152600401610fd29061264d565b60405180910390fd5b60008460ff167fffffffffffffffffffffffffffffffffffffffffffffffffffffffffffffffff901b1960001b90508082600001541681841614611054576040517f08c379a000000000000000000000000000000000000000000000000000000000815260040161104b906126b9565b60405180910390fd5b60018260010160016101000a81548160ff021916908315150217905550600061107b611220565b9050806007600082825461108f91906126d9565b925050819055506006600086815260200190815260200160002060030160009054906101000a900473ffffffffffffffffffffffffffffffffffffffff1673ffffffffffffffffffffffffffffffffffffffff166108fc829081150290604051600060405180830381858888f19350505050158015611112573d6000803e3d6000fd5b507fea2bdd58ca6098e1a702df9de5bbff14c0b9eaf9a162e0a96db2e40185aac4bd866006600088815260200190815260200160002060030160009054906101000a900473ffffffffffffffffffffffffffffffffffffffff168360405161117c9392919061276c565b60405180910390a150505050505050565b600080611198611787565b90506111a5818585611835565b600191505092915050565b60056020528060005260406000206000915090508060000154908060010160009054906101000a900460ff16908060010160019054906101000a900460ff16908060010160029054906101000a900473ffffffffffffffffffffffffffffffffffffffff16905084565b60085481565b6000600960019054906101000a900460ff1660ff1660075461124291906127d2565b905090565b60075481565b600960009054906101000a900460ff1681565b600960009054906101000a900460ff1615801561128457506112806108cd565b4210155b156112d1576001600960006101000a81548160ff02191690831515021790555060006112ae610847565b11156112d0576112bc610847565b6007546112c991906127d2565b6008819055505b5b565b6112db611260565b600960009054906101000a900460ff161561132b576040517f08c379a0000000000000000000000000000000000000000000000000000000008152600401611322906123cf565b60405180910390fd5b7f0000000000000000000000000000000000000000000000000000000000000000341161138d576040517f08c379a00000000000000000000000000000000000000000000000000000000081526004016113849061284f565b60405180910390fd5b346007600082825461139f91906122f1565b925050819055506113db337f0000000000000000000000000000000000000000000000000000000000000000346113d691906127d2565b611929565b565b6000600160008473ffffffffffffffffffffffffffffffffffffffff1673ffffffffffffffffffffffffffffffffffffffff16815260200190815260200160002060008373ffffffffffffffffffffffffffffffffffffffff1673ffffffffffffffffffffffffffffffffffffffff16815260200190815260200160002054905092915050565b61146c611260565b600960009054906101000a900460ff166114bb576040517f08c379a00000000000000000000000000000000000000000000000000000000081526004016114b290612200565b60405180910390fd5b6114c68233856117a1565b6114d282600085611562565b8073ffffffffffffffffffffffffffffffffffffffff166108fc600854856114fa919061224f565b9081150290604051600060405180830381858888f19350505050158015611525573d6000803e3d6000fd5b50505050565b7f000000000000000000000000000000000000000000000000000000000000000081565b600960019054906101000a900460ff1681565b600073ffffffffffffffffffffffffffffffffffffffff168373ffffffffffffffffffffffffffffffffffffffff16036115b45780600260008282546115a891906122f1565b92505081905550611687565b60008060008573ffffffffffffffffffffffffffffffffffffffff1673ffffffffffffffffffffffffffffffffffffffff16815260200190815260200160002054905081811015611640578381836040517fe450d38c0000000000000000000000000000000000000000000000000000000081526004016116379392919061287e565b60405180910390fd5b8181036000808673ffffffffffffffffffffffffffffffffffffffff1673ffffffffffffffffffffffffffffffffffffffff16815260200190815260200160002081905550505b600073ffffffffffffffffffffffffffffffffffffffff168273ffffffffffffffffffffffffffffffffffffffff16036116d0578060026000828254039250508190555061171d565b806000808473ffffffffffffffffffffffffffffffffffffffff1673ffffffffffffffffffffffffffffffffffffffff168152602001908152602001600020600082825401925050819055505b8173ffffffffffffffffffffffffffffffffffffffff168373ffffffffffffffffffffffffffffffffffffffff167fddf252ad1be2c89b69c2b068fc378daa952ba7f163c4a11628f55a4df523b3ef8360405161177a9190611e16565b60405180910390a3505050565b600033905090565b61179c83838360016119ab565b505050565b60006117ad84846113dd565b90507fffffffffffffffffffffffffffffffffffffffffffffffffffffffffffffffff811461182f578181101561181f578281836040517ffb8f41b20000000000000000000000000000000000000000000000000000000081526004016118169392919061287e565b60405180910390fd5b61182e848484840360006119ab565b5b50505050565b600073ffffffffffffffffffffffffffffffffffffffff168373ffffffffffffffffffffffffffffffffffffffff16036118a75760006040517f96c6fd1e00000000000000000000000000000000000000000000000000000000815260040161189e91906128b5565b60405180910390fd5b600073ffffffffffffffffffffffffffffffffffffffff168273ffffffffffffffffffffffffffffffffffffffff16036119195760006040517fec442f0500000000000000000000000000000000000000000000000000000000815260040161191091906128b5565b60405180910390fd5b611924838383611562565b505050565b600073ffffffffffffffffffffffffffffffffffffffff168273ffffffffffffffffffffffffffffffffffffffff160361199b5760006040517fec442f0500000000000000000000000000000000000000000000000000000000815260040161199291906128b5565b60405180910390fd5b6119a760008383611562565b5050565b600073ffffffffffffffffffffffffffffffffffffffff168473ffffffffffffffffffffffffffffffffffffffff1603611a1d5760006040517fe602df05000000000000000000000000000000000000000000000000000000008152600401611a1491906128b5565b60405180910390fd5b600073ffffffffffffffffffffffffffffffffffffffff168373ffffffffffffffffffffffffffffffffffffffff1603611a8f5760006040517f94280d62000000000000000000000000000000000000000000000000000000008152600401611a8691906128b5565b60405180910390fd5b81600160008673ffffffffffffffffffffffffffffffffffffffff1673ffffffffffffffffffffffffffffffffffffffff16815260200190815260200160002060008573ffffffffffffffffffffffffffffffffffffffff1673ffffffffffffffffffffffffffffffffffffffff168152602001908152602001600020819055508015611b7c578273ffffffffffffffffffffffffffffffffffffffff168473ffffffffffffffffffffffffffffffffffffffff167f8c5be1e5ebec7d5bd14f71427d1e84f3dd0314c0f7b2291e5b200ac8c7c3b92584604051611b739190611e16565b60405180910390a35b50505050565b604051806080016040528060008019168152602001600060ff168152602001600015158152602001600073ffffffffffffffffffffffffffffffffffffffff1681525090565b600080fd5b6000819050919050565b611be081611bcd565b8114611beb57600080fd5b50565b600081359050611bfd81611bd7565b92915050565b600073ffffffffffffffffffffffffffffffffffffffff82169050919050565b6000611c2e82611c03565b9050919050565b611c3e81611c23565b8114611c4957600080fd5b50565b600081359050611c5b81611c35565b92915050565b60008060408385031215611c7857611c77611bc8565b5b6000611c8685828601611bee565b9250506020611c9785828601611c4c565b9150509250929050565b600081519050919050565b600082825260208201905092915050565b60005b83811015611cdb578082015181840152602081019050611cc0565b60008484015250505050565b6000601f19601f8301169050919050565b6000611d0382611ca1565b611d0d8185611cac565b9350611d1d818560208601611cbd565b611d2681611ce7565b840191505092915050565b60006020820190508181036000830152611d4b8184611cf8565b905092915050565b6000611d5e82611c03565b9050919050565b611d6e81611d53565b8114611d7957600080fd5b50565b600081359050611d8b81611d65565b92915050565b60008060408385031215611da857611da7611bc8565b5b6000611db685828601611d7c565b9250506020611dc785828601611bee565b9150509250929050565b60008115159050919050565b611de681611dd1565b82525050565b6000602082019050611e016000830184611ddd565b92915050565b611e1081611bcd565b82525050565b6000602082019050611e2b6000830184611e07565b92915050565b6000819050919050565b611e4481611e31565b82525050565b6000602082019050611e5f6000830184611e3b565b92915050565b600080600060608486031215611e7e57611e7d611bc8565b5b6000611e8c86828701611d7c565b9350506020611e9d86828701611d7c565b9250506040611eae86828701611bee565b9150509250925092565b600060ff82169050919050565b611ece81611eb8565b82525050565b6000602082019050611ee96000830184611ec5565b92915050565b611ef881611e31565b82525050565b611f0781611eb8565b82525050565b611f1681611dd1565b82525050565b611f2581611c23565b82525050565b608082016000820151611f416000850182611eef565b506020820151611f546020850182611efe565b506040820151611f676040850182611f0d565b506060820151611f7a6060850182611f1c565b50505050565b6000608082019050611f956000830184611f2b565b92915050565b611fa481611e31565b8114611faf57600080fd5b50565b600081359050611fc181611f9b565b92915050565b60008060408385031215611fde57611fdd611bc8565b5b6000611fec85828601611fb2565b9250506020611ffd85828601611c4c565b9150509250929050565b60006020828403121561201d5761201c611bc8565b5b600061202b84828501611d7c565b91505092915050565b61203d81611eb8565b811461204857600080fd5b50565b60008135905061205a81612034565b92915050565b6000806040838503121561207757612076611bc8565b5b600061208585828601611fb2565b92505060206120968582860161204b565b9150509250929050565b6000602082840312156120b6576120b5611bc8565b5b60006120c48482850161204b565b91505092915050565b6120d681611c23565b82525050565b60006080820190506120f16000830187611e3b565b6120fe6020830186611ec5565b61210b6040830185611ddd565b61211860608301846120cd565b95945050505050565b6000806040838503121561213857612137611bc8565b5b600061214685828601611d7c565b925050602061215785828601611d7c565b9150509250929050565b60008060006060848603121561217a57612179611bc8565b5b600061218886828701611bee565b935050602061219986828701611d7c565b92505060406121aa86828701611c4c565b9150509250925092565b7f636f6e7472616374206973206e6f742068616c74656400000000000000000000600082015250565b60006121ea601683611cac565b91506121f5826121b4565b602082019050919050565b60006020820190508181036000830152612219816121dd565b9050919050565b7f4e487b7100000000000000000000000000000000000000000000000000000000600052601160045260246000fd5b600061225a82611bcd565b915061226583611bcd565b925082820261227381611bcd565b9150828204841483151761228a57612289612220565b5b5092915050565b7f4e487b7100000000000000000000000000000000000000000000000000000000600052602260045260246000fd5b600060028204905060018216806122d857607f821691505b6020821081036122eb576122ea612291565b5b50919050565b60006122fc82611bcd565b915061230783611bcd565b925082820190508082111561231f5761231e612220565b5b92915050565b600061233082611eb8565b915061233b83611eb8565b9250828201905060ff81111561235457612353612220565b5b92915050565b600061236582611eb8565b915060ff820361237857612377612220565b5b600182019050919050565b7f636f6e74726163742069732068616c7465640000000000000000000000000000600082015250565b60006123b9601283611cac565b91506123c482612383565b602082019050919050565b600060208201905081810360008301526123e8816123ac565b9050919050565b7f636c61696d20616c726561647920657869737473000000000000000000000000600082015250565b6000612425601483611cac565b9150612430826123ef565b602082019050919050565b6000602082019050818103600083015261245481612418565b9050919050565b6000819050919050565b61247661247182611e31565b61245b565b82525050565b60006124888284612465565b60208201915081905092915050565b7f636c61696d206861732065787069726564206f7220646f6573206e6f7420657860008201527f6973740000000000000000000000000000000000000000000000000000000000602082015250565b60006124f3602383611cac565b91506124fe82612497565b604082019050919050565b60006020820190508181036000830152612522816124e6565b9050919050565b7f746172676574206e6f7420656e61626c65640000000000000000000000000000600082015250565b600061255f601283611cac565b915061256a82612529565b602082019050919050565b6000602082019050818103600083015261258e81612552565b9050919050565b7f626974206d69736d617463680000000000000000000000000000000000000000600082015250565b60006125cb600c83611cac565b91506125d682612595565b602082019050919050565b600060208201905081810360008301526125fa816125be565b9050919050565b7f7461726765742068617320616c7265616479206265656e20636c61696d656400600082015250565b6000612637601f83611cac565b915061264282612601565b602082019050919050565b600060208201905081810360008301526126668161262a565b9050919050565b7f68617368206d69736d6174636800000000000000000000000000000000000000600082015250565b60006126a3600d83611cac565b91506126ae8261266d565b602082019050919050565b600060208201905081810360008301526126d281612696565b9050919050565b60006126e482611bcd565b91506126ef83611bcd565b925082820390508181111561270757612706612220565b5b92915050565b6000819050919050565b600061273261272d61272884611c03565b61270d565b611c03565b9050919050565b600061274482612717565b9050919050565b600061275682612739565b9050919050565b6127668161274b565b82525050565b60006060820190506127816000830186611ec5565b61278e602083018561275d565b61279b6040830184611e07565b949350505050565b7f4e487b7100000000000000000000000000000000000000000000000000000000600052601260045260246000fd5b60006127dd82611bcd565b91506127e883611bcd565b9250826127f8576127f76127a3565b5b828204905092915050565b7f696e76616c6964206465706f7369742076616c75650000000000000000000000600082015250565b6000612839601583611cac565b915061284482612803565b602082019050919050565b600060208201905081810360008301526128688161282c565b9050919050565b61287881611d53565b82525050565b6000606082019050612893600083018661286f565b6128a06020830185611e07565b6128ad6040830184611e07565b949350505050565b60006020820190506128ca600083018461286f565b9291505056fea2646970667358221220caa8e346743c9d34ac126e8f07213bb4d455dd6af5c33255ce5e1cd7fe353e3464736f6c63430008140033",
  "linkReferences": {},
  "deployedLinkReferences": {}
}