{
  "_format": "hh-sol-artifact-1",
  "contractName": "KeccakDoomsday",
  "sourceName": "contracts/doomsday.sol",
  "abi": [
    {
      "inputs": [
        {
          "internalType": "bytes32",
          "name": "_rootHash",
          "type": "bytes32"
        },
        {
          "internalType": "uint8",
          "name": "_startBits",
          "type": "uint8"
        },
        {
          "internalType": "uint8",
          "name": "len",
          "type": "uint8"
        }
      ],
      "stateMutability": "nonpayable",
      "type": "constructor"
    },
    {
      "inputs": [
        {
          "internalType": "address",
          "name": "spender",
          "type": "address"
        },
        {
          "internalType": "uint256",
          "name": "allowance",
          "type": "uint256"
        },
        {
          "internalType": "uint256",
          "name": "needed",
          "type": "uint256"
        }
      ],
      "name": "ERC20InsufficientAllowance",
      "type": "error"
    },
    {
      "inputs": [
        {
          "internalType": "address",
          "name": "sender",
          "type": "address"
        },
        {
          "internalType": "uint256",
          "name": "balance",
          "type": "uint256"
        },
        {
          "internalType": "uint256",
          "name": "needed",
          "type": "uint256"
        }
      ],
      "name": "ERC20InsufficientBalance",
      "type": "error"
    },
    {
      "inputs": [
        {
          "internalType": "address",
          "name": "approver",
          "type": "address"
        }
      ],
      "name": "ERC20InvalidApprover",
      "type": "error"
    },
    {
      "inputs": [
        {
          "internalType": "address",
          "name": "receiver",
          "type": "address"
        }
      ],
      "name": "ERC20InvalidReceiver",
      "type": "error"
    },
    {
      "inputs": [
        {
          "internalType": "address",
          "name": "sender",
          "type": "address"
        }
      ],
      "name": "ERC20InvalidSender",
      "type": "error"
    },
    {
      "inputs": [
        {
          "internalType": "address",
          "name": "spender",
          "type": "address"
        }
      ],
      "name": "ERC20InvalidSpender",
      "type": "error"
    },
    {
      "anonymous": false,
      "inputs": [
        {
          "indexed": true,
          "internalType": "address",
          "name": "owner",
          "type": "address"
        },
        {
          "indexed": true,
          "internalType": "address",
          "name": "spender",
          "type": "address"
        },
        {
          "indexed": false,
          "internalType": "uint256",
          "name": "value",
          "type": "uint256"
        }
      ],
      "name": "Approval",
      "type": "event"
    },
    {
      "anonymous": false,
      "inputs": [
        {
          "indexed": false,
          "internalType": "uint8",
          "name": "bits",
          "type": "uint8"
        },
        {
          "indexed": false,
          "internalType": "address",
          "name": "claimedBy",
          "type": "address"
        },
        {
          "indexed": false,
          "internalType": "uint256",
          "name": "weiClaimed",
          "type": "uint256"
        }
      ],
      "name": "HashClaimed",
      "type": "event"
    },
    {
      "anonymous": false,
      "inputs": [
        {
          "indexed": true,
          "internalType": "address",
          "name": "from",
          "type": "address"
        },
        {
          "indexed": true,
          "internalType": "address",
          "name": "to",
          "type": "address"
        },
        {
          "indexed": false,
          "internalType": "uint256",
          "name": "value",
          "type": "uint256"
        }
      ],
      "name": "Transfer",
      "type": "event"
    },
    {
      "inputs": [],
      "name": "CLAIM_TIMEOUT",
      "outputs": [
        {
          "internalType": "uint256",
          "name": "",
          "type": "uint256"
        }
      ],
      "stateMutability": "view",
      "type": "function"
    },
    {
      "inputs": [],
      "name": "HALT_TIMEOUT",
      "outputs": [
        {
          "internalType": "uint256",
          "name": "",
          "type": "uint256"
        }
      ],
      "stateMutability": "view",
      "type": "function"
    },
    {
      "inputs": [],
      "name": "WEI_PER_TOKEN",
      "outputs": [
        {
          "internalType": "uint256",
          "name": "",
          "type": "uint256"
        }
      ],
      "stateMutability": "view",
      "type": "function"
    },
    {
      "inputs": [
        {
          "internalType": "address",
          "name": "owner",
          "type": "address"
        },
        {
          "internalType": "address",
          "name": "spender",
          "type": "address"
        }
      ],
      "name": "allowance",
      "outputs": [
        {
          "internalType": "uint256",
          "name": "",
          "type": "uint256"
        }
      ],
      "stateMutability": "view",
      "type": "function"
    },
    {
      "inputs": [
        {
          "internalType": "address",
          "name": "spender",
          "type": "address"
        },
        {
          "internalType": "uint256",
          "name": "value",
          "type": "uint256"
        }
      ],
      "name": "approve",
      "outputs": [
        {
          "internalType": "bool",
          "name": "",
          "type": "bool"
        }
      ],
      "stateMutability": "nonpayable",
      "type": "function"
    },
    {
      "inputs": [],
      "name": "balance",
      "outputs": [
        {
          "internalType": "uint256",
          "name": "",
          "type": "uint256"
        }
      ],
      "stateMutability": "view",
      "type": "function"
    },
    {
      "inputs": [
        {
          "internalType": "address",
          "name": "account",
          "type": "address"
        }
      ],
      "name": "balanceOf",
      "outputs": [
        {
          "internalType": "uint256",
          "name": "",
          "type": "uint256"
        }
      ],
      "stateMutability": "view",
      "type": "function"
    },
    {
      "inputs": [
        {
          "internalType": "bytes32",
          "name": "commitValue",
          "type": "bytes32"
        },
        {
          "internalType": "address payable",
          "name": "claimant",
          "type": "address"
        }
      ],
      "name": "beginClaim",
      "outputs": [],
      "stateMutability": "nonpayable",
      "type": "function"
    },
    {
      "inputs": [],
      "name": "bitCount",
      "outputs": [
        {
          "internalType": "uint8",
          "name": "",
          "type": "uint8"
        }
      ],
      "stateMutability": "view",
      "type": "function"
    },
    {
      "inputs": [],
      "name": "decimals",
      "outputs": [
        {
          "internalType": "uint8",
          "name": "",
          "type": "uint8"
        }
      ],
      "stateMutability": "view",
      "type": "function"
    },
    {
      "inputs": [],
      "name": "deposit",
      "outputs": [],
      "stateMutability": "payable",
      "type": "function"
    },
    {
      "inputs": [],
      "name": "endTime",
      "outputs": [
        {
          "internalType": "uint256",
          "name": "",
          "type": "uint256"
        }
      ],
      "stateMutability": "view",
      "type": "function"
    },
    {
      "inputs": [],
      "name": "finalWeiPerToken",
      "outputs": [
        {
          "internalType": "uint256",
          "name": "",
          "type": "uint256"
        }
      ],
      "stateMutability": "view",
      "type": "function"
    },
    {
      "inputs": [
        {
          "internalType": "bytes32",
          "name": "preImage",
          "type": "bytes32"
        },
        {
          "internalType": "uint8",
          "name": "bits",
          "type": "uint8"
        }
      ],
      "name": "finishClaim",
      "outputs": [],
      "stateMutability": "nonpayable",
      "type": "function"
    },
    {
      "inputs": [],
      "name": "haltIfNeeded",
      "outputs": [],
      "stateMutability": "nonpayable",
      "type": "function"
    },
    {
      "inputs": [],
      "name": "halted",
      "outputs": [
        {
          "internalType": "bool",
          "name": "",
          "type": "bool"
        }
      ],
      "stateMutability": "view",
      "type": "function"
    },
    {
      "inputs": [],
      "name": "name",
      "outputs": [
        {
          "internalType": "string",
          "name": "",
          "type": "string"
        }
      ],
      "stateMutability": "view",
      "type": "function"
    },
    {
      "inputs": [],
      "name": "rootHash",
      "outputs": [
        {
          "internalType": "bytes32",
          "name": "",
          "type": "bytes32"
        }
      ],
      "stateMutability": "view",
      "type": "function"
    },
    {
      "inputs": [],
      "name": "startBits",
      "outputs": [
        {
          "internalType": "uint8",
          "name": "",
          "type": "uint8"
        }
      ],
      "stateMutability": "view",
      "type": "function"
    },
    {
      "inputs": [],
      "name": "startTime",
      "outputs": [
        {
          "internalType": "uint256",
          "name": "",
          "type": "uint256"
        }
      ],
      "stateMutability": "view",
      "type": "function"
    },
    {
      "inputs": [],
      "name": "symbol",
      "outputs": [
        {
          "internalType": "string",
          "name": "",
          "type": "string"
        }
      ],
      "stateMutability": "view",
      "type": "function"
    },
    {
      "inputs": [
        {
          "internalType": "uint8",
          "name": "",
          "type": "uint8"
        }
      ],
      "name": "targets",
      "outputs": [
        {
          "internalType": "bytes32",
          "name": "hash",
          "type": "bytes32"
        },
        {
          "internalType": "uint8",
          "name": "bits",
          "type": "uint8"
        },
        {
          "internalType": "bool",
          "name": "claimed",
          "type": "bool"
        },
        {
          "internalType": "address payable",
          "name": "claimedBy",
          "type": "address"
        }
      ],
      "stateMutability": "view",
      "type": "function"
    },
    {
      "inputs": [],
      "name": "totalSupply",
      "outputs": [
        {
          "internalType": "uint256",
          "name": "",
          "type": "uint256"
        }
      ],
      "stateMutability": "view",
      "type": "function"
    },
    {
      "inputs": [
        {
          "internalType": "address",
          "name": "to",
          "type": "address"
        },
        {
          "internalType": "uint256",
          "name": "value",
          "type": "uint256"
        }
      ],
      "name": "transfer",
      "outputs": [
        {
          "internalType": "bool",
          "name": "",
          "type": "bool"
        }
      ],
      "stateMutability": "nonpayable",
      "type": "function"
    },
    {
      "inputs": [
        {
          "internalType": "address",
          "name": "from",
          "type": "address"
        },
        {
          "internalType": "address",
          "name": "to",
          "type": "address"
        },
        {
          "internalType": "uint256",
          "name": "value",
          "type": "uint256"
        }
      ],
      "name": "transferFrom",
      "outputs": [
        {
          "internalType": "bool",
          "name": "",
          "type": "bool"
        }
      ],
      "stateMutability": "nonpayable",
      "type": "function"
    },
    {
      "inputs": [
        {
          "internalType": "uint256",
          "name": "value",
          "type": "uint256"
        },
        {
          "internalType": "address payable",
          "name": "destination",
          "type": "address"
        }
      ],
      "name": "withdraw",
      "outputs": [],
      "stateMutability": "nonpayable",
      "type": "function"
    },
    {
      "inputs": [
        {
          "internalType": "uint256",
          "name": "value",
          "type": "uint256"
        },
        {
          "internalType": "address",
          "name": "owner",
          "type": "address"
        },
        {
          "internalType": "address payable",
          "name": "destination",
          "type": "address"
        }
      ],
      "name": "withdrawFrom",
      "outputs": [],
      "stateMutability": "nonpayable",
      "type": "function"
    }
  ],
  "bytecode": "0x6101206040526312cc030060c0908152506201518060e090815250633b9aca00610100908152503480156200003357600080fd5b5060405162002d7b38038062002d7b8339818101604052810190620000599190620002f5565b6040518060400160405280600e81526020017f4b656363616b446f6f6d736461790000000000000000000000000000000000008152506040518060400160405280600381526020017f4b444400000000000000000000000000000000000000000000000000000000008152508160039081620000d69190620005cb565b508060049081620000e89190620005cb565b5050504260a08181525050826080818152505080600960016101000a81548160ff021916908360ff16021790555081600960026101000a81548160ff021916908360ff16021790555060008290505b8183620001459190620006e1565b60ff168160ff1610156200026d5760405180608001604052808260ff1660805160001c6200017491906200071d565b60001b81526020018260ff168152602001600015158152602001600073ffffffffffffffffffffffffffffffffffffffff16815250600560008360ff1660ff1681526020019081526020016000206000820151816000015560208201518160010160006101000a81548160ff021916908360ff16021790555060408201518160010160016101000a81548160ff02191690831515021790555060608201518160010160026101000a81548173ffffffffffffffffffffffffffffffffffffffff021916908373ffffffffffffffffffffffffffffffffffffffff1602179055509050508080620002649062000758565b91505062000137565b5050505062000786565b600080fd5b6000819050919050565b62000291816200027c565b81146200029d57600080fd5b50565b600081519050620002b18162000286565b92915050565b600060ff82169050919050565b620002cf81620002b7565b8114620002db57600080fd5b50565b600081519050620002ef81620002c4565b92915050565b60008060006060848603121562000311576200031062000277565b5b60006200032186828701620002a0565b93505060206200033486828701620002de565b92505060406200034786828701620002de565b9150509250925092565b600081519050919050565b7f4e487b7100000000000000000000000000000000000000000000000000000000600052604160045260246000fd5b7f4e487b7100000000000000000000000000000000000000000000000000000000600052602260045260246000fd5b60006002820490506001821680620003d357607f821691505b602082108103620003e957620003e86200038b565b5b50919050565b60008190508160005260206000209050919050565b60006020601f8301049050919050565b600082821b905092915050565b600060088302620004537fffffffffffffffffffffffffffffffffffffffffffffffffffffffffffffffff8262000414565b6200045f868362000414565b95508019841693508086168417925050509392505050565b6000819050919050565b6000819050919050565b6000620004ac620004a6620004a08462000477565b62000481565b62000477565b9050919050565b6000819050919050565b620004c8836200048b565b620004e0620004d782620004b3565b84845462000421565b825550505050565b600090565b620004f7620004e8565b62000504818484620004bd565b505050565b5b818110156200052c5762000520600082620004ed565b6001810190506200050a565b5050565b601f8211156200057b576200054581620003ef565b620005508462000404565b8101602085101562000560578190505b620005786200056f8562000404565b83018262000509565b50505b505050565b600082821c905092915050565b6000620005a06000198460080262000580565b1980831691505092915050565b6000620005bb83836200058d565b9150826002028217905092915050565b620005d68262000351565b67ffffffffffffffff811115620005f257620005f16200035c565b5b620005fe8254620003ba565b6200060b82828562000530565b600060209050601f8311600181146200064357600084156200062e578287015190505b6200063a8582620005ad565b865550620006aa565b601f1984166200065386620003ef565b60005b828110156200067d5784890151825560018201915060208501945060208101905062000656565b868310156200069d578489015162000699601f8916826200058d565b8355505b6001600288020188555050505b505050505050565b7f4e487b7100000000000000000000000000000000000000000000000000000000600052601160045260246000fd5b6000620006ee82620002b7565b9150620006fb83620002b7565b9250828201905060ff811115620007175762000716620006b2565b5b92915050565b60006200072a8262000477565b9150620007378362000477565b9250828201905080821115620007525762000751620006b2565b5b92915050565b60006200076582620002b7565b915060ff82036200077b576200077a620006b2565b5b600182019050919050565b60805160a05160c05160e0516101005161258d620007ee600039600081816107fb01528181611104015261118301526000818161099901526113040152600081816108590152610a7201526000818161087a0152610ade015260006107d7015261258d6000f3fe60806040526004361061019b5760003560e01c806378e97925116100ec578063b9b8af0b1161008a578063dd62ed3e11610064578063dd62ed3e1461059f578063e92235e5146105dc578063f5f5dd4114610605578063fcbaa98f146106305761019b565b8063b9b8af0b14610553578063cd73097a1461057e578063d0e30db0146105955761019b565b8063a9059cbb116100c6578063a9059cbb14610480578063ac423ce1146104bd578063ad919b3b146104fd578063b69ef8a8146105285761019b565b806378e979251461040157806395d89b411461042c578063a7ae01f1146104575761019b565b806323b872dd1161015957806337ff0e751161013357806337ff0e751461034557806343aa7fc214610370578063584997171461039957806370a08231146103c45761019b565b806323b872dd146102b2578063313ce567146102ef5780633197cbb61461031a5761019b565b8062f714ce146101a057806306fdde03146101c9578063095ea7b3146101f457806318160ddd146102315780631d80009a1461025c5780632293dbdb14610287575b600080fd5b3480156101ac57600080fd5b506101c760048036038101906101c291906119f2565b61065b565b005b3480156101d557600080fd5b506101de610716565b6040516101eb9190611ac2565b60405180910390f35b34801561020057600080fd5b5061021b60048036038101906102169190611b22565b6107a8565b6040516102289190611b7d565b60405180910390f35b34801561023d57600080fd5b506102466107cb565b6040516102539190611ba7565b60405180910390f35b34801561026857600080fd5b506102716107d5565b60405161027e9190611bdb565b60405180910390f35b34801561029357600080fd5b5061029c6107f9565b6040516102a99190611ba7565b60405180910390f35b3480156102be57600080fd5b506102d960048036038101906102d49190611bf6565b61081d565b6040516102e69190611b7d565b60405180910390f35b3480156102fb57600080fd5b5061030461084c565b6040516103119190611c65565b60405180910390f35b34801561032657600080fd5b5061032f610855565b60405161033c9190611ba7565b60405180910390f35b34801561035157600080fd5b5061035a6108a8565b6040516103679190611c65565b60405180910390f35b34801561037c57600080fd5b5061039760048036038101906103929190611cac565b6108bb565b005b3480156103a557600080fd5b506103ae610a70565b6040516103bb9190611ba7565b60405180910390f35b3480156103d057600080fd5b506103eb60048036038101906103e69190611cec565b610a94565b6040516103f89190611ba7565b60405180910390f35b34801561040d57600080fd5b50610416610adc565b6040516104239190611ba7565b60405180910390f35b34801561043857600080fd5b50610441610b00565b60405161044e9190611ac2565b60405180910390f35b34801561046357600080fd5b5061047e60048036038101906104799190611d45565b610b92565b005b34801561048c57600080fd5b506104a760048036038101906104a29190611b22565b610f8b565b6040516104b49190611b7d565b60405180910390f35b3480156104c957600080fd5b506104e460048036038101906104df9190611d85565b610fae565b6040516104f49493929190611dc1565b60405180910390f35b34801561050957600080fd5b50610512611018565b60405161051f9190611ba7565b60405180910390f35b34801561053457600080fd5b5061053d61101e565b60405161054a9190611ba7565b60405180910390f35b34801561055f57600080fd5b50610568611024565b6040516105759190611b7d565b60405180910390f35b34801561058a57600080fd5b50610593611037565b005b61059d6110aa565b005b3480156105ab57600080fd5b506105c660048036038101906105c19190611e06565b6111b4565b6040516105d39190611ba7565b60405180910390f35b3480156105e857600080fd5b5061060360048036038101906105fe9190611e46565b61123b565b005b34801561061157600080fd5b5061061a611302565b6040516106279190611ba7565b60405180910390f35b34801561063c57600080fd5b50610645611326565b6040516106529190611c65565b60405180910390f35b610663611037565b600960009054906101000a900460ff166106b2576040517f08c379a00000000000000000000000000000000000000000000000000000000081526004016106a990611ee5565b60405180910390fd5b6106be33600084611339565b8073ffffffffffffffffffffffffffffffffffffffff166108fc600854846106e69190611f34565b9081150290604051600060405180830381858888f19350505050158015610711573d6000803e3d6000fd5b505050565b60606003805461072590611fa5565b80601f016020809104026020016040519081016040528092919081815260200182805461075190611fa5565b801561079e5780601f106107735761010080835404028352916020019161079e565b820191906000526020600020905b81548152906001019060200180831161078157829003601f168201915b5050505050905090565b6000806107b361155e565b90506107c0818585611566565b600191505092915050565b6000600254905090565b7f000000000000000000000000000000000000000000000000000000000000000081565b7f000000000000000000000000000000000000000000000000000000000000000081565b60008061082861155e565b9050610835858285611578565b61084085858561160c565b60019150509392505050565b60006012905090565b60007f00000000000000000000000000000000000000000000000000000000000000007f00000000000000000000000000000000000000000000000000000000000000006108a39190611fd6565b905090565b600960029054906101000a900460ff1681565b6108c3611037565b600960009054906101000a900460ff1615610913576040517f08c379a000000000000000000000000000000000000000000000000000000000815260040161090a90612056565b60405180910390fd5b60006006600084815260200190815260200160002060000154148061094d5750600660008381526020019081526020016000206000015442115b61098c576040517f08c379a0000000000000000000000000000000000000000000000000000000008152600401610983906120c2565b60405180910390fd5b60405180608001604052807f0000000000000000000000000000000000000000000000000000000000000000426109c39190611fd6565b81526020018381526020016000801b81526020018273ffffffffffffffffffffffffffffffffffffffff168152506006600084815260200190815260200160002060008201518160000155602082015181600101556040820151816002015560608201518160030160006101000a81548173ffffffffffffffffffffffffffffffffffffffff021916908373ffffffffffffffffffffffffffffffffffffffff1602179055509050505050565b7f000000000000000000000000000000000000000000000000000000000000000081565b60008060008373ffffffffffffffffffffffffffffffffffffffff1673ffffffffffffffffffffffffffffffffffffffff168152602001908152602001600020549050919050565b7f000000000000000000000000000000000000000000000000000000000000000081565b606060048054610b0f90611fa5565b80601f0160208091040260200160405190810160405280929190818152602001828054610b3b90611fa5565b8015610b885780601f10610b5d57610100808354040283529160200191610b88565b820191906000526020600020905b815481529060010190602001808311610b6b57829003601f168201915b5050505050905090565b610b9a611037565b600960009054906101000a900460ff1615610bea576040517f08c379a0000000000000000000000000000000000000000000000000000000008152600401610be190612056565b60405180910390fd5b600060018360001c610bfc9190611fd6565b60001b604051602001610c0f9190612103565b60405160208183030381529060405280519060200120905042600660008381526020019081526020016000206000015411610c7f576040517f08c379a0000000000000000000000000000000000000000000000000000000008152600401610c7690612190565b60405180910390fd5b600083604051602001610c929190612103565b6040516020818303038152906040528051906020012090506000600560008560ff1660ff16815260200190815260200160002090506000801b816000015403610d10576040517f08c379a0000000000000000000000000000000000000000000000000000000008152600401610d07906121fc565b60405180910390fd5b8360ff168160010160009054906101000a900460ff1660ff1614610d69576040517f08c379a0000000000000000000000000000000000000000000000000000000008152600401610d6090612268565b60405180910390fd5b600015158160010160019054906101000a900460ff16151514610dc1576040517f08c379a0000000000000000000000000000000000000000000000000000000008152600401610db8906122d4565b60405180910390fd5b60008460ff167fffffffffffffffffffffffffffffffffffffffffffffffffffffffffffffffff901b1960001b90508082600001541681841614610e3a576040517f08c379a0000000000000000000000000000000000000000000000000000000008152600401610e3190612340565b60405180910390fd5b60018260010160016101000a81548160ff0219169083151502179055506000600960019054906101000a900460ff1660ff16600754610e79919061238f565b90508060076000828254610e8d91906123c0565b925050819055506006600086815260200190815260200160002060030160009054906101000a900473ffffffffffffffffffffffffffffffffffffffff1673ffffffffffffffffffffffffffffffffffffffff166108fc829081150290604051600060405180830381858888f19350505050158015610f10573d6000803e3d6000fd5b507fea2bdd58ca6098e1a702df9de5bbff14c0b9eaf9a162e0a96db2e40185aac4bd866006600088815260200190815260200160002060030160009054906101000a900473ffffffffffffffffffffffffffffffffffffffff1683604051610f7a93929190612453565b60405180910390a150505050505050565b600080610f9661155e565b9050610fa381858561160c565b600191505092915050565b60056020528060005260406000206000915090508060000154908060010160009054906101000a900460ff16908060010160019054906101000a900460ff16908060010160029054906101000a900473ffffffffffffffffffffffffffffffffffffffff16905084565b60085481565b60075481565b600960009054906101000a900460ff1681565b600960009054906101000a900460ff1615801561105b5750611057610855565b4210155b156110a8576001600960006101000a81548160ff02191690831515021790555060006110856107cb565b11156110a7576110936107cb565b6007546110a0919061238f565b6008819055505b5b565b6110b2611037565b600960009054906101000a900460ff1615611102576040517f08c379a00000000000000000000000000000000000000000000000000000000081526004016110f990612056565b60405180910390fd5b7f00000000000000000000000000000000000000000000000000000000000000003411611164576040517f08c379a000000000000000000000000000000000000000000000000000000000815260040161115b906124d6565b60405180910390fd5b34600760008282546111769190611fd6565b925050819055506111b2337f0000000000000000000000000000000000000000000000000000000000000000346111ad919061238f565b611700565b565b6000600160008473ffffffffffffffffffffffffffffffffffffffff1673ffffffffffffffffffffffffffffffffffffffff16815260200190815260200160002060008373ffffffffffffffffffffffffffffffffffffffff1673ffffffffffffffffffffffffffffffffffffffff16815260200190815260200160002054905092915050565b611243611037565b600960009054906101000a900460ff16611292576040517f08c379a000000000000000000000000000000000000000000000000000000000815260040161128990611ee5565b60405180910390fd5b61129d823385611578565b6112a982600085611339565b8073ffffffffffffffffffffffffffffffffffffffff166108fc600854856112d19190611f34565b9081150290604051600060405180830381858888f193505050501580156112fc573d6000803e3d6000fd5b50505050565b7f000000000000000000000000000000000000000000000000000000000000000081565b600960019054906101000a900460ff1681565b600073ffffffffffffffffffffffffffffffffffffffff168373ffffffffffffffffffffffffffffffffffffffff160361138b57806002600082825461137f9190611fd6565b9250508190555061145e565b60008060008573ffffffffffffffffffffffffffffffffffffffff1673ffffffffffffffffffffffffffffffffffffffff16815260200190815260200160002054905081811015611417578381836040517fe450d38c00000000000000000000000000000000000000000000000000000000815260040161140e93929190612505565b60405180910390fd5b8181036000808673ffffffffffffffffffffffffffffffffffffffff1673ffffffffffffffffffffffffffffffffffffffff16815260200190815260200160002081905550505b600073ffffffffffffffffffffffffffffffffffffffff168273ffffffffffffffffffffffffffffffffffffffff16036114a757806002600082825403925050819055506114f4565b806000808473ffffffffffffffffffffffffffffffffffffffff1673ffffffffffffffffffffffffffffffffffffffff168152602001908152602001600020600082825401925050819055505b8173ffffffffffffffffffffffffffffffffffffffff168373ffffffffffffffffffffffffffffffffffffffff167fddf252ad1be2c89b69c2b068fc378daa952ba7f163c4a11628f55a4df523b3ef836040516115519190611ba7565b60405180910390a3505050565b600033905090565b6115738383836001611782565b505050565b600061158484846111b4565b90507fffffffffffffffffffffffffffffffffffffffffffffffffffffffffffffffff811461160657818110156115f6578281836040517ffb8f41b20000000000000000000000000000000000000000000000000000000081526004016115ed93929190612505565b60405180910390fd5b61160584848484036000611782565b5b50505050565b600073ffffffffffffffffffffffffffffffffffffffff168373ffffffffffffffffffffffffffffffffffffffff160361167e5760006040517f96c6fd1e000000000000000000000000000000000000000000000000000000008152600401611675919061253c565b60405180910390fd5b600073ffffffffffffffffffffffffffffffffffffffff168273ffffffffffffffffffffffffffffffffffffffff16036116f05760006040517fec442f050000000000000000000000000000000000000000000000000000000081526004016116e7919061253c565b60405180910390fd5b6116fb838383611339565b505050565b600073ffffffffffffffffffffffffffffffffffffffff168273ffffffffffffffffffffffffffffffffffffffff16036117725760006040517fec442f05000000000000000000000000000000000000000000000000000000008152600401611769919061253c565b60405180910390fd5b61177e60008383611339565b5050565b600073ffffffffffffffffffffffffffffffffffffffff168473ffffffffffffffffffffffffffffffffffffffff16036117f45760006040517fe602df050000000000000000000000000000000000000000000000000000000081526004016117eb919061253c565b60405180910390fd5b600073ffffffffffffffffffffffffffffffffffffffff168373ffffffffffffffffffffffffffffffffffffffff16036118665760006040517f94280d6200000000000000000000000000000000000000000000000000000000815260040161185d919061253c565b60405180910390fd5b81600160008673ffffffffffffffffffffffffffffffffffffffff1673ffffffffffffffffffffffffffffffffffffffff16815260200190815260200160002060008573ffffffffffffffffffffffffffffffffffffffff1673ffffffffffffffffffffffffffffffffffffffff168152602001908152602001600020819055508015611953578273ffffffffffffffffffffffffffffffffffffffff168473ffffffffffffffffffffffffffffffffffffffff167f8c5be1e5ebec7d5bd14f71427d1e84f3dd0314c0f7b2291e5b200ac8c7c3b9258460405161194a9190611ba7565b60405180910390a35b50505050565b600080fd5b6000819050919050565b6119718161195e565b811461197c57600080fd5b50565b60008135905061198e81611968565b92915050565b600073ffffffffffffffffffffffffffffffffffffffff82169050919050565b60006119bf82611994565b9050919050565b6119cf816119b4565b81146119da57600080fd5b50565b6000813590506119ec816119c6565b92915050565b60008060408385031215611a0957611a08611959565b5b6000611a178582860161197f565b9250506020611a28858286016119dd565b9150509250929050565b600081519050919050565b600082825260208201905092915050565b60005b83811015611a6c578082015181840152602081019050611a51565b60008484015250505050565b6000601f19601f8301169050919050565b6000611a9482611a32565b611a9e8185611a3d565b9350611aae818560208601611a4e565b611ab781611a78565b840191505092915050565b60006020820190508181036000830152611adc8184611a89565b905092915050565b6000611aef82611994565b9050919050565b611aff81611ae4565b8114611b0a57600080fd5b50565b600081359050611b1c81611af6565b92915050565b60008060408385031215611b3957611b38611959565b5b6000611b4785828601611b0d565b9250506020611b588582860161197f565b9150509250929050565b60008115159050919050565b611b7781611b62565b82525050565b6000602082019050611b926000830184611b6e565b92915050565b611ba18161195e565b82525050565b6000602082019050611bbc6000830184611b98565b92915050565b6000819050919050565b611bd581611bc2565b82525050565b6000602082019050611bf06000830184611bcc565b92915050565b600080600060608486031215611c0f57611c0e611959565b5b6000611c1d86828701611b0d565b9350506020611c2e86828701611b0d565b9250506040611c3f8682870161197f565b9150509250925092565b600060ff82169050919050565b611c5f81611c49565b82525050565b6000602082019050611c7a6000830184611c56565b92915050565b611c8981611bc2565b8114611c9457600080fd5b50565b600081359050611ca681611c80565b92915050565b60008060408385031215611cc357611cc2611959565b5b6000611cd185828601611c97565b9250506020611ce2858286016119dd565b9150509250929050565b600060208284031215611d0257611d01611959565b5b6000611d1084828501611b0d565b91505092915050565b611d2281611c49565b8114611d2d57600080fd5b50565b600081359050611d3f81611d19565b92915050565b60008060408385031215611d5c57611d5b611959565b5b6000611d6a85828601611c97565b9250506020611d7b85828601611d30565b9150509250929050565b600060208284031215611d9b57611d9a611959565b5b6000611da984828501611d30565b91505092915050565b611dbb816119b4565b82525050565b6000608082019050611dd66000830187611bcc565b611de36020830186611c56565b611df06040830185611b6e565b611dfd6060830184611db2565b95945050505050565b60008060408385031215611e1d57611e1c611959565b5b6000611e2b85828601611b0d565b9250506020611e3c85828601611b0d565b9150509250929050565b600080600060608486031215611e5f57611e5e611959565b5b6000611e6d8682870161197f565b9350506020611e7e86828701611b0d565b9250506040611e8f868287016119dd565b9150509250925092565b7f636f6e7472616374206973206e6f742068616c74656400000000000000000000600082015250565b6000611ecf601683611a3d565b9150611eda82611e99565b602082019050919050565b60006020820190508181036000830152611efe81611ec2565b9050919050565b7f4e487b7100000000000000000000000000000000000000000000000000000000600052601160045260246000fd5b6000611f3f8261195e565b9150611f4a8361195e565b9250828202611f588161195e565b91508282048414831517611f6f57611f6e611f05565b5b5092915050565b7f4e487b7100000000000000000000000000000000000000000000000000000000600052602260045260246000fd5b60006002820490506001821680611fbd57607f821691505b602082108103611fd057611fcf611f76565b5b50919050565b6000611fe18261195e565b9150611fec8361195e565b925082820190508082111561200457612003611f05565b5b92915050565b7f636f6e74726163742069732068616c7465640000000000000000000000000000600082015250565b6000612040601283611a3d565b915061204b8261200a565b602082019050919050565b6000602082019050818103600083015261206f81612033565b9050919050565b7f636c61696d20616c726561647920657869737473000000000000000000000000600082015250565b60006120ac601483611a3d565b91506120b782612076565b602082019050919050565b600060208201905081810360008301526120db8161209f565b9050919050565b6000819050919050565b6120fd6120f882611bc2565b6120e2565b82525050565b600061210f82846120ec565b60208201915081905092915050565b7f636c61696d206861732065787069726564206f7220646f6573206e6f7420657860008201527f6973740000000000000000000000000000000000000000000000000000000000602082015250565b600061217a602383611a3d565b91506121858261211e565b604082019050919050565b600060208201905081810360008301526121a98161216d565b9050919050565b7f746172676574206e6f7420656e61626c65640000000000000000000000000000600082015250565b60006121e6601283611a3d565b91506121f1826121b0565b602082019050919050565b60006020820190508181036000830152612215816121d9565b9050919050565b7f626974206d69736d617463680000000000000000000000000000000000000000600082015250565b6000612252600c83611a3d565b915061225d8261221c565b602082019050919050565b6000602082019050818103600083015261228181612245565b9050919050565b7f7461726765742068617320616c7265616479206265656e20636c61696d656400600082015250565b60006122be601f83611a3d565b91506122c982612288565b602082019050919050565b600060208201905081810360008301526122ed816122b1565b9050919050565b7f68617368206d69736d6174636800000000000000000000000000000000000000600082015250565b600061232a600d83611a3d565b9150612335826122f4565b602082019050919050565b600060208201905081810360008301526123598161231d565b9050919050565b7f4e487b7100000000000000000000000000000000000000000000000000000000600052601260045260246000fd5b600061239a8261195e565b91506123a58361195e565b9250826123b5576123b4612360565b5b828204905092915050565b60006123cb8261195e565b91506123d68361195e565b92508282039050818111156123ee576123ed611f05565b5b92915050565b6000819050919050565b600061241961241461240f84611994565b6123f4565b611994565b9050919050565b600061242b826123fe565b9050919050565b600061243d82612420565b9050919050565b61244d81612432565b82525050565b60006060820190506124686000830186611c56565b6124756020830185612444565b6124826040830184611b98565b949350505050565b7f696e76616c6964206465706f7369742076616c75650000000000000000000000600082015250565b60006124c0601583611a3d565b91506124cb8261248a565b602082019050919050565b600060208201905081810360008301526124ef816124b3565b9050919050565b6124ff81611ae4565b82525050565b600060608201905061251a60008301866124f6565b6125276020830185611b98565b6125346040830184611b98565b949350505050565b600060208201905061255160008301846124f6565b9291505056fea2646970667358221220c7daa3da4c13062ff517e6cb29280767ae7721046f55eb8c10cccd1f674b7c8b64736f6c63430008140033",
  "linkReferences": {},
  "deployedLinkReferences": {}
}