{
  "_format": "hh-sol-artifact-1",
  "contractName": "KeccakDoomsday",
  "sourceName": "contracts/doomsday.sol",
  "abi": [
    {
      "inputs": [
        {
          "internalType": "bytes32",
          "name": "_rootHash",
          "type": "bytes32"
        },
        {
          "internalType": "uint8",
          "name": "_startBits",
          "type": "uint8"
        },
        {
          "internalType": "uint8",
          "name": "len",
          "type": "uint8"
        }
      ],
      "stateMutability": "nonpayable",
      "type": "constructor"
    },
    {
      "inputs": [
        {
          "internalType": "address",
          "name": "spender",
          "type": "address"
        },
        {
          "internalType": "uint256",
          "name": "allowance",
          "type": "uint256"
        },
        {
          "internalType": "uint256",
          "name": "needed",
          "type": "uint256"
        }
      ],
      "name": "ERC20InsufficientAllowance",
      "type": "error"
    },
    {
      "inputs": [
        {
          "internalType": "address",
          "name": "sender",
          "type": "address"
        },
        {
          "internalType": "uint256",
          "name": "balance",
          "type": "uint256"
        },
        {
          "internalType": "uint256",
          "name": "needed",
          "type": "uint256"
        }
      ],
      "name": "ERC20InsufficientBalance",
      "type": "error"
    },
    {
      "inputs": [
        {
          "internalType": "address",
          "name": "approver",
          "type": "address"
        }
      ],
      "name": "ERC20InvalidApprover",
      "type": "error"
    },
    {
      "inputs": [
        {
          "internalType": "address",
          "name": "receiver",
          "type": "address"
        }
      ],
      "name": "ERC20InvalidReceiver",
      "type": "error"
    },
    {
      "inputs": [
        {
          "internalType": "address",
          "name": "sender",
          "type": "address"
        }
      ],
      "name": "ERC20InvalidSender",
      "type": "error"
    },
    {
      "inputs": [
        {
          "internalType": "address",
          "name": "spender",
          "type": "address"
        }
      ],
      "name": "ERC20InvalidSpender",
      "type": "error"
    },
    {
      "anonymous": false,
      "inputs": [
        {
          "indexed": true,
          "internalType": "address",
          "name": "owner",
          "type": "address"
        },
        {
          "indexed": true,
          "internalType": "address",
          "name": "spender",
          "type": "address"
        },
        {
          "indexed": false,
          "internalType": "uint256",
          "name": "value",
          "type": "uint256"
        }
      ],
      "name": "Approval",
      "type": "event"
    },
    {
      "anonymous": false,
      "inputs": [
        {
          "indexed": false,
          "internalType": "uint8",
          "name": "bits",
          "type": "uint8"
        },
        {
          "indexed": false,
          "internalType": "address",
          "name": "claimedBy",
          "type": "address"
        },
        {
          "indexed": false,
          "internalType": "uint256",
          "name": "weiClaimed",
          "type": "uint256"
        }
      ],
      "name": "HashClaimed",
      "type": "event"
    },
    {
      "anonymous": false,
      "inputs": [
        {
          "indexed": true,
          "internalType": "address",
          "name": "from",
          "type": "address"
        },
        {
          "indexed": true,
          "internalType": "address",
          "name": "to",
          "type": "address"
        },
        {
          "indexed": false,
          "internalType": "uint256",
          "name": "value",
          "type": "uint256"
        }
      ],
      "name": "Transfer",
      "type": "event"
    },
    {
      "inputs": [],
      "name": "CLAIM_TIMEOUT",
      "outputs": [
        {
          "internalType": "uint256",
          "name": "",
          "type": "uint256"
        }
      ],
      "stateMutability": "view",
      "type": "function"
    },
    {
      "inputs": [],
      "name": "HALT_TIMEOUT",
      "outputs": [
        {
          "internalType": "uint256",
          "name": "",
          "type": "uint256"
        }
      ],
      "stateMutability": "view",
      "type": "function"
    },
    {
      "inputs": [],
      "name": "WEI_PER_TOKEN",
      "outputs": [
        {
          "internalType": "uint256",
          "name": "",
          "type": "uint256"
        }
      ],
      "stateMutability": "view",
      "type": "function"
    },
    {
      "inputs": [
        {
          "internalType": "address",
          "name": "owner",
          "type": "address"
        },
        {
          "internalType": "address",
          "name": "spender",
          "type": "address"
        }
      ],
      "name": "allowance",
      "outputs": [
        {
          "internalType": "uint256",
          "name": "",
          "type": "uint256"
        }
      ],
      "stateMutability": "view",
      "type": "function"
    },
    {
      "inputs": [
        {
          "internalType": "address",
          "name": "spender",
          "type": "address"
        },
        {
          "internalType": "uint256",
          "name": "value",
          "type": "uint256"
        }
      ],
      "name": "approve",
      "outputs": [
        {
          "internalType": "bool",
          "name": "",
          "type": "bool"
        }
      ],
      "stateMutability": "nonpayable",
      "type": "function"
    },
    {
      "inputs": [],
      "name": "balance",
      "outputs": [
        {
          "internalType": "uint256",
          "name": "",
          "type": "uint256"
        }
      ],
      "stateMutability": "view",
      "type": "function"
    },
    {
      "inputs": [
        {
          "internalType": "address",
          "name": "account",
          "type": "address"
        }
      ],
      "name": "balanceOf",
      "outputs": [
        {
          "internalType": "uint256",
          "name": "",
          "type": "uint256"
        }
      ],
      "stateMutability": "view",
      "type": "function"
    },
    {
      "inputs": [
        {
          "internalType": "bytes32",
          "name": "commitValue",
          "type": "bytes32"
        },
        {
          "internalType": "address payable",
          "name": "claimant",
          "type": "address"
        }
      ],
      "name": "beginClaim",
      "outputs": [],
      "stateMutability": "nonpayable",
      "type": "function"
    },
    {
      "inputs": [],
      "name": "bitCount",
      "outputs": [
        {
          "internalType": "uint8",
          "name": "",
          "type": "uint8"
        }
      ],
      "stateMutability": "view",
      "type": "function"
    },
    {
      "inputs": [
        {
          "internalType": "bytes32",
          "name": "",
          "type": "bytes32"
        }
      ],
      "name": "claims",
      "outputs": [
        {
          "internalType": "uint256",
          "name": "validUntil",
          "type": "uint256"
        },
        {
          "internalType": "bytes32",
          "name": "commitValue",
          "type": "bytes32"
        },
        {
          "internalType": "bytes32",
          "name": "preImage",
          "type": "bytes32"
        },
        {
          "internalType": "address payable",
          "name": "claimant",
          "type": "address"
        }
      ],
      "stateMutability": "view",
      "type": "function"
    },
    {
      "inputs": [],
      "name": "decimals",
      "outputs": [
        {
          "internalType": "uint8",
          "name": "",
          "type": "uint8"
        }
      ],
      "stateMutability": "pure",
      "type": "function"
    },
    {
      "inputs": [],
      "name": "deposit",
      "outputs": [],
      "stateMutability": "payable",
      "type": "function"
    },
    {
      "inputs": [],
      "name": "endTime",
      "outputs": [
        {
          "internalType": "uint256",
          "name": "",
          "type": "uint256"
        }
      ],
      "stateMutability": "view",
      "type": "function"
    },
    {
      "inputs": [],
      "name": "expectedReward",
      "outputs": [
        {
          "internalType": "uint256",
          "name": "",
          "type": "uint256"
        }
      ],
      "stateMutability": "view",
      "type": "function"
    },
    {
      "inputs": [],
      "name": "finalWeiPerToken",
      "outputs": [
        {
          "internalType": "uint256",
          "name": "",
          "type": "uint256"
        }
      ],
      "stateMutability": "view",
      "type": "function"
    },
    {
      "inputs": [
        {
          "internalType": "bytes32",
          "name": "preImage",
          "type": "bytes32"
        },
        {
          "internalType": "uint8",
          "name": "bits",
          "type": "uint8"
        }
      ],
      "name": "finishClaim",
      "outputs": [],
      "stateMutability": "nonpayable",
      "type": "function"
    },
    {
      "inputs": [],
      "name": "haltIfNeeded",
      "outputs": [],
      "stateMutability": "nonpayable",
      "type": "function"
    },
    {
      "inputs": [],
      "name": "halted",
      "outputs": [
        {
          "internalType": "bool",
          "name": "",
          "type": "bool"
        }
      ],
      "stateMutability": "view",
      "type": "function"
    },
    {
      "inputs": [],
      "name": "name",
      "outputs": [
        {
          "internalType": "string",
          "name": "",
          "type": "string"
        }
      ],
      "stateMutability": "view",
      "type": "function"
    },
    {
      "inputs": [],
      "name": "nextTarget",
      "outputs": [
        {
          "components": [
            {
              "internalType": "bytes32",
              "name": "hash",
              "type": "bytes32"
            },
            {
              "internalType": "uint8",
              "name": "bits",
              "type": "uint8"
            },
            {
              "internalType": "bool",
              "name": "claimed",
              "type": "bool"
            },
            {
              "internalType": "address payable",
              "name": "claimedBy",
              "type": "address"
            }
          ],
          "internalType": "struct KeccakDoomsday.HashTarget",
          "name": "",
          "type": "tuple"
        }
      ],
      "stateMutability": "view",
      "type": "function"
    },
    {
      "inputs": [],
      "name": "rootHash",
      "outputs": [
        {
          "internalType": "bytes32",
          "name": "",
          "type": "bytes32"
        }
      ],
      "stateMutability": "view",
      "type": "function"
    },
    {
      "inputs": [],
      "name": "startBits",
      "outputs": [
        {
          "internalType": "uint8",
          "name": "",
          "type": "uint8"
        }
      ],
      "stateMutability": "view",
      "type": "function"
    },
    {
      "inputs": [],
      "name": "startTime",
      "outputs": [
        {
          "internalType": "uint256",
          "name": "",
          "type": "uint256"
        }
      ],
      "stateMutability": "view",
      "type": "function"
    },
    {
      "inputs": [],
      "name": "symbol",
      "outputs": [
        {
          "internalType": "string",
          "name": "",
          "type": "string"
        }
      ],
      "stateMutability": "view",
      "type": "function"
    },
    {
      "inputs": [
        {
          "internalType": "uint8",
          "name": "",
          "type": "uint8"
        }
      ],
      "name": "targets",
      "outputs": [
        {
          "internalType": "bytes32",
          "name": "hash",
          "type": "bytes32"
        },
        {
          "internalType": "uint8",
          "name": "bits",
          "type": "uint8"
        },
        {
          "internalType": "bool",
          "name": "claimed",
          "type": "bool"
        },
        {
          "internalType": "address payable",
          "name": "claimedBy",
          "type": "address"
        }
      ],
      "stateMutability": "view",
      "type": "function"
    },
    {
      "inputs": [],
      "name": "totalSupply",
      "outputs": [
        {
          "internalType": "uint256",
          "name": "",
          "type": "uint256"
        }
      ],
      "stateMutability": "view",
      "type": "function"
    },
    {
      "inputs": [
        {
          "internalType": "address",
          "name": "to",
          "type": "address"
        },
        {
          "internalType": "uint256",
          "name": "value",
          "type": "uint256"
        }
      ],
      "name": "transfer",
      "outputs": [
        {
          "internalType": "bool",
          "name": "",
          "type": "bool"
        }
      ],
      "stateMutability": "nonpayable",
      "type": "function"
    },
    {
      "inputs": [
        {
          "internalType": "address",
          "name": "from",
          "type": "address"
        },
        {
          "internalType": "address",
          "name": "to",
          "type": "address"
        },
        {
          "internalType": "uint256",
          "name": "value",
          "type": "uint256"
        }
      ],
      "name": "transferFrom",
      "outputs": [
        {
          "internalType": "bool",
          "name": "",
          "type": "bool"
        }
      ],
      "stateMutability": "nonpayable",
      "type": "function"
    },
    {
      "inputs": [
        {
          "internalType": "uint256",
          "name": "value",
          "type": "uint256"
        },
        {
          "internalType": "address payable",
          "name": "destination",
          "type": "address"
        }
      ],
      "name": "withdraw",
      "outputs": [],
      "stateMutability": "nonpayable",
      "type": "function"
    },
    {
      "inputs": [
        {
          "internalType": "uint256",
          "name": "value",
          "type": "uint256"
        },
        {
          "internalType": "address",
          "name": "owner",
          "type": "address"
        },
        {
          "internalType": "address payable",
          "name": "destination",
          "type": "address"
        }
      ],
      "name": "withdrawFrom",
      "outputs": [],
      "stateMutability": "nonpayable",
      "type": "function"
    }
  ],
  "bytecode": "0x6101206040526312cc030060c0908152506201518060e090815250633b9aca00610100908152503480156200003357600080fd5b5060405162003202380380620032028339818101604052810190620000599190620002f5565b6040518060400160405280600e81526020017f4b656363616b446f6f6d736461790000000000000000000000000000000000008152506040518060400160405280600381526020017f4b444400000000000000000000000000000000000000000000000000000000008152508160039081620000d69190620005cb565b508060049081620000e89190620005cb565b5050504260a08181525050826080818152505080600960016101000a81548160ff021916908360ff16021790555081600960026101000a81548160ff021916908360ff16021790555060008290505b8183620001459190620006e1565b60ff168160ff1610156200026d5760405180608001604052808260ff1660805160001c6200017491906200071d565b60001b81526020018260ff168152602001600015158152602001600073ffffffffffffffffffffffffffffffffffffffff16815250600560008360ff1660ff1681526020019081526020016000206000820151816000015560208201518160010160006101000a81548160ff021916908360ff16021790555060408201518160010160016101000a81548160ff02191690831515021790555060608201518160010160026101000a81548173ffffffffffffffffffffffffffffffffffffffff021916908373ffffffffffffffffffffffffffffffffffffffff1602179055509050508080620002649062000758565b91505062000137565b5050505062000786565b600080fd5b6000819050919050565b62000291816200027c565b81146200029d57600080fd5b50565b600081519050620002b18162000286565b92915050565b600060ff82169050919050565b620002cf81620002b7565b8114620002db57600080fd5b50565b600081519050620002ef81620002c4565b92915050565b60008060006060848603121562000311576200031062000277565b5b60006200032186828701620002a0565b93505060206200033486828701620002de565b92505060406200034786828701620002de565b9150509250925092565b600081519050919050565b7f4e487b7100000000000000000000000000000000000000000000000000000000600052604160045260246000fd5b7f4e487b7100000000000000000000000000000000000000000000000000000000600052602260045260246000fd5b60006002820490506001821680620003d357607f821691505b602082108103620003e957620003e86200038b565b5b50919050565b60008190508160005260206000209050919050565b60006020601f8301049050919050565b600082821b905092915050565b600060088302620004537fffffffffffffffffffffffffffffffffffffffffffffffffffffffffffffffff8262000414565b6200045f868362000414565b95508019841693508086168417925050509392505050565b6000819050919050565b6000819050919050565b6000620004ac620004a6620004a08462000477565b62000481565b62000477565b9050919050565b6000819050919050565b620004c8836200048b565b620004e0620004d782620004b3565b84845462000421565b825550505050565b600090565b620004f7620004e8565b62000504818484620004bd565b505050565b5b818110156200052c5762000520600082620004ed565b6001810190506200050a565b5050565b601f8211156200057b576200054581620003ef565b620005508462000404565b8101602085101562000560578190505b620005786200056f8562000404565b83018262000509565b50505b505050565b600082821c905092915050565b6000620005a06000198460080262000580565b1980831691505092915050565b6000620005bb83836200058d565b9150826002028217905092915050565b620005d68262000351565b67ffffffffffffffff811115620005f257620005f16200035c565b5b620005fe8254620003ba565b6200060b82828562000530565b600060209050601f8311600181146200064357600084156200062e578287015190505b6200063a8582620005ad565b865550620006aa565b601f1984166200065386620003ef565b60005b828110156200067d5784890151825560018201915060208501945060208101905062000656565b868310156200069d578489015162000699601f8916826200058d565b8355505b6001600288020188555050505b505050505050565b7f4e487b7100000000000000000000000000000000000000000000000000000000600052601160045260246000fd5b6000620006ee82620002b7565b9150620006fb83620002b7565b9250828201905060ff811115620007175762000716620006b2565b5b92915050565b60006200072a8262000477565b9150620007378362000477565b9250828201905080821115620007525762000751620006b2565b5b92915050565b60006200076582620002b7565b915060ff82036200077b576200077a620006b2565b5b600182019050919050565b60805160a05160c05160e05161010051612a14620007ee600039600081816108c20152818161137801526113f8015260008181610bfe01526115c901526000818161091c0152610cd701526000818161093d0152610d430152600061089e0152612a146000f3fe6080604052600436106101cc5760003560e01c806395d89b41116100f7578063b9b8af0b11610095578063e92235e511610064578063e92235e514610663578063eff0f5921461068c578063f5f5dd41146106cc578063fcbaa98f146106f7576101cc565b8063b9b8af0b146105da578063cd73097a14610605578063d0e30db01461061c578063dd62ed3e14610626576101cc565b8063ac423ce1116100d1578063ac423ce114610519578063ad919b3b14610559578063b015120e14610584578063b69ef8a8146105af576101cc565b806395d89b4114610488578063a7ae01f1146104b3578063a9059cbb146104dc576101cc565b8063313ce5671161016f57806343aa7fc21161013e57806343aa7fc2146103cc57806358499717146103f557806370a082311461042057806378e979251461045d576101cc565b8063313ce567146103205780633197cbb61461034b57806337ff0e75146103765780633ab562f2146103a1576101cc565b806318160ddd116101ab57806318160ddd146102625780631d80009a1461028d5780632293dbdb146102b857806323b872dd146102e3576101cc565b8062f714ce146101d157806306fdde03146101fa578063095ea7b314610225575b600080fd5b3480156101dd57600080fd5b506101f860048036038101906101f39190611cfd565b610722565b005b34801561020657600080fd5b5061020f6107dd565b60405161021c9190611dcd565b60405180910390f35b34801561023157600080fd5b5061024c60048036038101906102479190611e2d565b61086f565b6040516102599190611e88565b60405180910390f35b34801561026e57600080fd5b50610277610892565b6040516102849190611eb2565b60405180910390f35b34801561029957600080fd5b506102a261089c565b6040516102af9190611ee6565b60405180910390f35b3480156102c457600080fd5b506102cd6108c0565b6040516102da9190611eb2565b60405180910390f35b3480156102ef57600080fd5b5061030a60048036038101906103059190611f01565b6108e4565b6040516103179190611e88565b60405180910390f35b34801561032c57600080fd5b50610335610913565b6040516103429190611f70565b60405180910390f35b34801561035757600080fd5b50610360610918565b60405161036d9190611eb2565b60405180910390f35b34801561038257600080fd5b5061038b61096b565b6040516103989190611f70565b60405180910390f35b3480156103ad57600080fd5b506103b661097e565b6040516103c3919061201c565b60405180910390f35b3480156103d857600080fd5b506103f360048036038101906103ee9190612063565b610b20565b005b34801561040157600080fd5b5061040a610cd5565b6040516104179190611eb2565b60405180910390f35b34801561042c57600080fd5b50610447600480360381019061044291906120a3565b610cf9565b6040516104549190611eb2565b60405180910390f35b34801561046957600080fd5b50610472610d41565b60405161047f9190611eb2565b60405180910390f35b34801561049457600080fd5b5061049d610d65565b6040516104aa9190611dcd565b60405180910390f35b3480156104bf57600080fd5b506104da60048036038101906104d591906120fc565b610df7565b005b3480156104e857600080fd5b5061050360048036038101906104fe9190611e2d565b6111d8565b6040516105109190611e88565b60405180910390f35b34801561052557600080fd5b50610540600480360381019061053b919061213c565b6111fb565b6040516105509493929190612178565b60405180910390f35b34801561056557600080fd5b5061056e611265565b60405161057b9190611eb2565b60405180910390f35b34801561059057600080fd5b5061059961126b565b6040516105a69190611eb2565b60405180910390f35b3480156105bb57600080fd5b506105c4611292565b6040516105d19190611eb2565b60405180910390f35b3480156105e657600080fd5b506105ef611298565b6040516105fc9190611e88565b60405180910390f35b34801561061157600080fd5b5061061a6112ab565b005b61062461131e565b005b34801561063257600080fd5b5061064d600480360381019061064891906121bd565b611429565b60405161065a9190611eb2565b60405180910390f35b34801561066f57600080fd5b5061068a600480360381019061068591906121fd565b6114b0565b005b34801561069857600080fd5b506106b360048036038101906106ae9190612250565b611577565b6040516106c3949392919061227d565b60405180910390f35b3480156106d857600080fd5b506106e16115c7565b6040516106ee9190611eb2565b60405180910390f35b34801561070357600080fd5b5061070c6115eb565b6040516107199190611f70565b60405180910390f35b61072a6112ab565b600960009054906101000a900460ff16610779576040517f08c379a00000000000000000000000000000000000000000000000000000000081526004016107709061230e565b60405180910390fd5b610785336000846115fe565b8073ffffffffffffffffffffffffffffffffffffffff166108fc600854846107ad919061235d565b9081150290604051600060405180830381858888f193505050501580156107d8573d6000803e3d6000fd5b505050565b6060600380546107ec906123ce565b80601f0160208091040260200160405190810160405280929190818152602001828054610818906123ce565b80156108655780601f1061083a57610100808354040283529160200191610865565b820191906000526020600020905b81548152906001019060200180831161084857829003601f168201915b5050505050905090565b60008061087a611823565b905061088781858561182b565b600191505092915050565b6000600254905090565b7f000000000000000000000000000000000000000000000000000000000000000081565b7f000000000000000000000000000000000000000000000000000000000000000081565b6000806108ef611823565b90506108fc85828561183d565b6109078585856118d1565b60019150509392505050565b600090565b60007f00000000000000000000000000000000000000000000000000000000000000007f000000000000000000000000000000000000000000000000000000000000000061096691906123ff565b905090565b600960029054906101000a900460ff1681565b610986611c1e565b6000600960029054906101000a900460ff1690505b600960019054906101000a900460ff16600960029054906101000a900460ff166109c59190612433565b60ff168160ff161015610ad757600560008260ff1660ff16815260200190815260200160002060010160019054906101000a900460ff16610ac457600560008260ff1660ff168152602001908152602001600020604051806080016040529081600082015481526020016001820160009054906101000a900460ff1660ff1660ff1681526020016001820160019054906101000a900460ff161515151581526020016001820160029054906101000a900473ffffffffffffffffffffffffffffffffffffffff1673ffffffffffffffffffffffffffffffffffffffff1673ffffffffffffffffffffffffffffffffffffffff1681525050915050610b1d565b8080610acf90612468565b91505061099b565b5060405180608001604052806000801b8152602001600060ff168152602001600015158152602001600073ffffffffffffffffffffffffffffffffffffffff1681525090505b90565b610b286112ab565b600960009054906101000a900460ff1615610b78576040517f08c379a0000000000000000000000000000000000000000000000000000000008152600401610b6f906124dd565b60405180910390fd5b600060066000848152602001908152602001600020600001541480610bb25750600660008381526020019081526020016000206000015442115b610bf1576040517f08c379a0000000000000000000000000000000000000000000000000000000008152600401610be890612549565b60405180910390fd5b60405180608001604052807f000000000000000000000000000000000000000000000000000000000000000042610c2891906123ff565b81526020018381526020016000801b81526020018273ffffffffffffffffffffffffffffffffffffffff168152506006600084815260200190815260200160002060008201518160000155602082015181600101556040820151816002015560608201518160030160006101000a81548173ffffffffffffffffffffffffffffffffffffffff021916908373ffffffffffffffffffffffffffffffffffffffff1602179055509050505050565b7f000000000000000000000000000000000000000000000000000000000000000081565b60008060008373ffffffffffffffffffffffffffffffffffffffff1673ffffffffffffffffffffffffffffffffffffffff168152602001908152602001600020549050919050565b7f000000000000000000000000000000000000000000000000000000000000000081565b606060048054610d74906123ce565b80601f0160208091040260200160405190810160405280929190818152602001828054610da0906123ce565b8015610ded5780601f10610dc257610100808354040283529160200191610ded565b820191906000526020600020905b815481529060010190602001808311610dd057829003601f168201915b5050505050905090565b610dff6112ab565b600960009054906101000a900460ff1615610e4f576040517f08c379a0000000000000000000000000000000000000000000000000000000008152600401610e46906124dd565b60405180910390fd5b600060018360001c610e6191906123ff565b60001b604051602001610e74919061258a565b60405160208183030381529060405280519060200120905042600660008381526020019081526020016000206000015411610ee4576040517f08c379a0000000000000000000000000000000000000000000000000000000008152600401610edb90612617565b60405180910390fd5b600083604051602001610ef7919061258a565b6040516020818303038152906040528051906020012090506000600560008560ff1660ff16815260200190815260200160002090506000801b816000015403610f75576040517f08c379a0000000000000000000000000000000000000000000000000000000008152600401610f6c90612683565b60405180910390fd5b8360ff168160010160009054906101000a900460ff1660ff1614610fce576040517f08c379a0000000000000000000000000000000000000000000000000000000008152600401610fc5906126ef565b60405180910390fd5b600015158160010160019054906101000a900460ff16151514611026576040517f08c379a000000000000000000000000000000000000000000000000000000000815260040161101d9061275b565b60405180910390fd5b60008460ff167fffffffffffffffffffffffffffffffffffffffffffffffffffffffffffffffff901b1960001b9050808260000154168184161461109f576040517f08c379a0000000000000000000000000000000000000000000000000000000008152600401611096906127c7565b60405180910390fd5b60018260010160016101000a81548160ff02191690831515021790555060006110c661126b565b905080600760008282546110da91906127e7565b925050819055506006600086815260200190815260200160002060030160009054906101000a900473ffffffffffffffffffffffffffffffffffffffff1673ffffffffffffffffffffffffffffffffffffffff166108fc829081150290604051600060405180830381858888f1935050505015801561115d573d6000803e3d6000fd5b507fea2bdd58ca6098e1a702df9de5bbff14c0b9eaf9a162e0a96db2e40185aac4bd866006600088815260200190815260200160002060030160009054906101000a900473ffffffffffffffffffffffffffffffffffffffff16836040516111c79392919061287a565b60405180910390a150505050505050565b6000806111e3611823565b90506111f08185856118d1565b600191505092915050565b60056020528060005260406000206000915090508060000154908060010160009054906101000a900460ff16908060010160019054906101000a900460ff16908060010160029054906101000a900473ffffffffffffffffffffffffffffffffffffffff16905084565b60085481565b6000600960019054906101000a900460ff1660ff1660075461128d91906128e0565b905090565b60075481565b600960009054906101000a900460ff1681565b600960009054906101000a900460ff161580156112cf57506112cb610918565b4210155b1561131c576001600960006101000a81548160ff02191690831515021790555060006112f9610892565b111561131b57611307610892565b60075461131491906128e0565b6008819055505b5b565b6113266112ab565b600960009054906101000a900460ff1615611376576040517f08c379a000000000000000000000000000000000000000000000000000000000815260040161136d906124dd565b60405180910390fd5b7f00000000000000000000000000000000000000000000000000000000000000003410156113d9576040517f08c379a00000000000000000000000000000000000000000000000000000000081526004016113d09061295d565b60405180910390fd5b34600760008282546113eb91906123ff565b92505081905550611427337f00000000000000000000000000000000000000000000000000000000000000003461142291906128e0565b6119c5565b565b6000600160008473ffffffffffffffffffffffffffffffffffffffff1673ffffffffffffffffffffffffffffffffffffffff16815260200190815260200160002060008373ffffffffffffffffffffffffffffffffffffffff1673ffffffffffffffffffffffffffffffffffffffff16815260200190815260200160002054905092915050565b6114b86112ab565b600960009054906101000a900460ff16611507576040517f08c379a00000000000000000000000000000000000000000000000000000000081526004016114fe9061230e565b60405180910390fd5b61151282338561183d565b61151e826000856115fe565b8073ffffffffffffffffffffffffffffffffffffffff166108fc60085485611546919061235d565b9081150290604051600060405180830381858888f19350505050158015611571573d6000803e3d6000fd5b50505050565b60066020528060005260406000206000915090508060000154908060010154908060020154908060030160009054906101000a900473ffffffffffffffffffffffffffffffffffffffff16905084565b7f000000000000000000000000000000000000000000000000000000000000000081565b600960019054906101000a900460ff1681565b600073ffffffffffffffffffffffffffffffffffffffff168373ffffffffffffffffffffffffffffffffffffffff160361165057806002600082825461164491906123ff565b92505081905550611723565b60008060008573ffffffffffffffffffffffffffffffffffffffff1673ffffffffffffffffffffffffffffffffffffffff168152602001908152602001600020549050818110156116dc578381836040517fe450d38c0000000000000000000000000000000000000000000000000000000081526004016116d39392919061298c565b60405180910390fd5b8181036000808673ffffffffffffffffffffffffffffffffffffffff1673ffffffffffffffffffffffffffffffffffffffff16815260200190815260200160002081905550505b600073ffffffffffffffffffffffffffffffffffffffff168273ffffffffffffffffffffffffffffffffffffffff160361176c57806002600082825403925050819055506117b9565b806000808473ffffffffffffffffffffffffffffffffffffffff1673ffffffffffffffffffffffffffffffffffffffff168152602001908152602001600020600082825401925050819055505b8173ffffffffffffffffffffffffffffffffffffffff168373ffffffffffffffffffffffffffffffffffffffff167fddf252ad1be2c89b69c2b068fc378daa952ba7f163c4a11628f55a4df523b3ef836040516118169190611eb2565b60405180910390a3505050565b600033905090565b6118388383836001611a47565b505050565b60006118498484611429565b90507fffffffffffffffffffffffffffffffffffffffffffffffffffffffffffffffff81146118cb57818110156118bb578281836040517ffb8f41b20000000000000000000000000000000000000000000000000000000081526004016118b29392919061298c565b60405180910390fd5b6118ca84848484036000611a47565b5b50505050565b600073ffffffffffffffffffffffffffffffffffffffff168373ffffffffffffffffffffffffffffffffffffffff16036119435760006040517f96c6fd1e00000000000000000000000000000000000000000000000000000000815260040161193a91906129c3565b60405180910390fd5b600073ffffffffffffffffffffffffffffffffffffffff168273ffffffffffffffffffffffffffffffffffffffff16036119b55760006040517fec442f050000000000000000000000000000000000000000000000000000000081526004016119ac91906129c3565b60405180910390fd5b6119c08383836115fe565b505050565b600073ffffffffffffffffffffffffffffffffffffffff168273ffffffffffffffffffffffffffffffffffffffff1603611a375760006040517fec442f05000000000000000000000000000000000000000000000000000000008152600401611a2e91906129c3565b60405180910390fd5b611a43600083836115fe565b5050565b600073ffffffffffffffffffffffffffffffffffffffff168473ffffffffffffffffffffffffffffffffffffffff1603611ab95760006040517fe602df05000000000000000000000000000000000000000000000000000000008152600401611ab091906129c3565b60405180910390fd5b600073ffffffffffffffffffffffffffffffffffffffff168373ffffffffffffffffffffffffffffffffffffffff1603611b2b5760006040517f94280d62000000000000000000000000000000000000000000000000000000008152600401611b2291906129c3565b60405180910390fd5b81600160008673ffffffffffffffffffffffffffffffffffffffff1673ffffffffffffffffffffffffffffffffffffffff16815260200190815260200160002060008573ffffffffffffffffffffffffffffffffffffffff1673ffffffffffffffffffffffffffffffffffffffff168152602001908152602001600020819055508015611c18578273ffffffffffffffffffffffffffffffffffffffff168473ffffffffffffffffffffffffffffffffffffffff167f8c5be1e5ebec7d5bd14f71427d1e84f3dd0314c0f7b2291e5b200ac8c7c3b92584604051611c0f9190611eb2565b60405180910390a35b50505050565b604051806080016040528060008019168152602001600060ff168152602001600015158152602001600073ffffffffffffffffffffffffffffffffffffffff1681525090565b600080fd5b6000819050919050565b611c7c81611c69565b8114611c8757600080fd5b50565b600081359050611c9981611c73565b92915050565b600073ffffffffffffffffffffffffffffffffffffffff82169050919050565b6000611cca82611c9f565b9050919050565b611cda81611cbf565b8114611ce557600080fd5b50565b600081359050611cf781611cd1565b92915050565b60008060408385031215611d1457611d13611c64565b5b6000611d2285828601611c8a565b9250506020611d3385828601611ce8565b9150509250929050565b600081519050919050565b600082825260208201905092915050565b60005b83811015611d77578082015181840152602081019050611d5c565b60008484015250505050565b6000601f19601f8301169050919050565b6000611d9f82611d3d565b611da98185611d48565b9350611db9818560208601611d59565b611dc281611d83565b840191505092915050565b60006020820190508181036000830152611de78184611d94565b905092915050565b6000611dfa82611c9f565b9050919050565b611e0a81611def565b8114611e1557600080fd5b50565b600081359050611e2781611e01565b92915050565b60008060408385031215611e4457611e43611c64565b5b6000611e5285828601611e18565b9250506020611e6385828601611c8a565b9150509250929050565b60008115159050919050565b611e8281611e6d565b82525050565b6000602082019050611e9d6000830184611e79565b92915050565b611eac81611c69565b82525050565b6000602082019050611ec76000830184611ea3565b92915050565b6000819050919050565b611ee081611ecd565b82525050565b6000602082019050611efb6000830184611ed7565b92915050565b600080600060608486031215611f1a57611f19611c64565b5b6000611f2886828701611e18565b9350506020611f3986828701611e18565b9250506040611f4a86828701611c8a565b9150509250925092565b600060ff82169050919050565b611f6a81611f54565b82525050565b6000602082019050611f856000830184611f61565b92915050565b611f9481611ecd565b82525050565b611fa381611f54565b82525050565b611fb281611e6d565b82525050565b611fc181611cbf565b82525050565b608082016000820151611fdd6000850182611f8b565b506020820151611ff06020850182611f9a565b5060408201516120036040850182611fa9565b5060608201516120166060850182611fb8565b50505050565b60006080820190506120316000830184611fc7565b92915050565b61204081611ecd565b811461204b57600080fd5b50565b60008135905061205d81612037565b92915050565b6000806040838503121561207a57612079611c64565b5b60006120888582860161204e565b925050602061209985828601611ce8565b9150509250929050565b6000602082840312156120b9576120b8611c64565b5b60006120c784828501611e18565b91505092915050565b6120d981611f54565b81146120e457600080fd5b50565b6000813590506120f6816120d0565b92915050565b6000806040838503121561211357612112611c64565b5b60006121218582860161204e565b9250506020612132858286016120e7565b9150509250929050565b60006020828403121561215257612151611c64565b5b6000612160848285016120e7565b91505092915050565b61217281611cbf565b82525050565b600060808201905061218d6000830187611ed7565b61219a6020830186611f61565b6121a76040830185611e79565b6121b46060830184612169565b95945050505050565b600080604083850312156121d4576121d3611c64565b5b60006121e285828601611e18565b92505060206121f385828601611e18565b9150509250929050565b60008060006060848603121561221657612215611c64565b5b600061222486828701611c8a565b935050602061223586828701611e18565b925050604061224686828701611ce8565b9150509250925092565b60006020828403121561226657612265611c64565b5b60006122748482850161204e565b91505092915050565b60006080820190506122926000830187611ea3565b61229f6020830186611ed7565b6122ac6040830185611ed7565b6122b96060830184612169565b95945050505050565b7f636f6e7472616374206973206e6f742068616c74656400000000000000000000600082015250565b60006122f8601683611d48565b9150612303826122c2565b602082019050919050565b60006020820190508181036000830152612327816122eb565b9050919050565b7f4e487b7100000000000000000000000000000000000000000000000000000000600052601160045260246000fd5b600061236882611c69565b915061237383611c69565b925082820261238181611c69565b915082820484148315176123985761239761232e565b5b5092915050565b7f4e487b7100000000000000000000000000000000000000000000000000000000600052602260045260246000fd5b600060028204905060018216806123e657607f821691505b6020821081036123f9576123f861239f565b5b50919050565b600061240a82611c69565b915061241583611c69565b925082820190508082111561242d5761242c61232e565b5b92915050565b600061243e82611f54565b915061244983611f54565b9250828201905060ff8111156124625761246161232e565b5b92915050565b600061247382611f54565b915060ff82036124865761248561232e565b5b600182019050919050565b7f636f6e74726163742069732068616c7465640000000000000000000000000000600082015250565b60006124c7601283611d48565b91506124d282612491565b602082019050919050565b600060208201905081810360008301526124f6816124ba565b9050919050565b7f636c61696d20616c726561647920657869737473000000000000000000000000600082015250565b6000612533601483611d48565b915061253e826124fd565b602082019050919050565b6000602082019050818103600083015261256281612526565b9050919050565b6000819050919050565b61258461257f82611ecd565b612569565b82525050565b60006125968284612573565b60208201915081905092915050565b7f636c61696d206861732065787069726564206f7220646f6573206e6f7420657860008201527f6973740000000000000000000000000000000000000000000000000000000000602082015250565b6000612601602383611d48565b915061260c826125a5565b604082019050919050565b60006020820190508181036000830152612630816125f4565b9050919050565b7f746172676574206e6f7420656e61626c65640000000000000000000000000000600082015250565b600061266d601283611d48565b915061267882612637565b602082019050919050565b6000602082019050818103600083015261269c81612660565b9050919050565b7f626974206d69736d617463680000000000000000000000000000000000000000600082015250565b60006126d9600c83611d48565b91506126e4826126a3565b602082019050919050565b60006020820190508181036000830152612708816126cc565b9050919050565b7f7461726765742068617320616c7265616479206265656e20636c61696d656400600082015250565b6000612745601f83611d48565b91506127508261270f565b602082019050919050565b6000602082019050818103600083015261277481612738565b9050919050565b7f68617368206d69736d6174636800000000000000000000000000000000000000600082015250565b60006127b1600d83611d48565b91506127bc8261277b565b602082019050919050565b600060208201905081810360008301526127e0816127a4565b9050919050565b60006127f282611c69565b91506127fd83611c69565b92508282039050818111156128155761281461232e565b5b92915050565b6000819050919050565b600061284061283b61283684611c9f565b61281b565b611c9f565b9050919050565b600061285282612825565b9050919050565b600061286482612847565b9050919050565b61287481612859565b82525050565b600060608201905061288f6000830186611f61565b61289c602083018561286b565b6128a96040830184611ea3565b949350505050565b7f4e487b7100000000000000000000000000000000000000000000000000000000600052601260045260246000fd5b60006128eb82611c69565b91506128f683611c69565b925082612906576129056128b1565b5b828204905092915050565b7f696e76616c6964206465706f7369742076616c75650000000000000000000000600082015250565b6000612947601583611d48565b915061295282612911565b602082019050919050565b600060208201905081810360008301526129768161293a565b9050919050565b61298681611def565b82525050565b60006060820190506129a1600083018661297d565b6129ae6020830185611ea3565b6129bb6040830184611ea3565b949350505050565b60006020820190506129d8600083018461297d565b9291505056fea2646970667358221220b599339d32824926d59d333865f5a743794451af66c0ec7f1c3ddf87e6403a6e64736f6c63430008140033",
  "linkReferences": {},
  "deployedLinkReferences": {}
}